:020000041000EA
:4000000000F00308010900100D000000750900107509001075090010750900100000000000000000000000000000000071090010710900100000000071090010710900103E
:4000400071090010710900107109001071090010710900107109001071090010710900107109001071090010710900107109001071090010710900107109001071090010E0
:4000800071090010710900107109001071090010710900107109001071090010710900107109001071090010710900107109001071090010710900107109001071090010A0
:4000C0007109001071090010710900107109001071090010710900107109001071090010710900107109001071090010710900107109001071090010710900107109001060
:40010000710900107109001071090010710900107109001071090010710900107109001071090010710900107109001071090010710900107109001071090010710900101F
:4001400071090010710900107109001071090010710900107109001071090010710900107109001071090010710900107109001071090010710900107109001071090010DF
:40018000710900107109001071090010710900107109001071090010710900107109001071090010710900107109001071090010710900107109001071090010710900109F
:4001C000710900107109001071090010710900107109001071090010710900107109001071090010710900107109001071090010710900107109001071090010710900105F
:40020000710900107109001071090010710900107109001071090010710900107109001071090010710900107109001071090010710900107109001071090010710900101E
:4002400071090010710900107109001071090010710900107109001071090010710900107109001071090010710900107109001071090010710900107109001071090010DE
:40028000710900107109001071090010710900107109001071090010710900107109001071090010710900107109001071090010710900107109001071090010710900109E
:4002C000710900107109001071090010710900107109001071090010710900107109001010B5054C237833B9044B13B10448AFF300800123237010BD740E00080000000082
:40030000941E001008B5034B1BB103490348AFF3008008BD00000000780E0008941E0010704741F2A803C0F6000301221A60704770B5064640F69063C0F60003197093F84D
:400340003D30DB0917D0012240F69063C0F6000383F83C20344640F69865C0F600050FCD0FC40FCD0FC40FCD0FC495E80F0084E80F00304670BD144640F69063C0F600030E
:4003800093F83D2042F0800283F83D2041F2A803C0F600030020186040F22333C1F2000340F2E022C0F60002012100F04AFF50B9002CCFD040F69063C0F6000393F83D3067
:4003C000DB09F7D1C6E70322BEE770B590B006460D46002240F22131C1F20001012000F091FF40F2E023C0F6000340F69064C0F600045C60DC60656094F83D3043F02003FD
:4004000084F83D3094F83D306FF3C71384F83D30012211466846FFF78BFFA36BB12B02D9A36BB52B06D940F69063C0F60003052283F83C20344640F69865C0F600050FCD57
:400440000FC40FCD0FC40FCD0FC495E80F0084E80F00304610B070BD10B504460A462021FFF766FF204610BD10B5044640F69063C0F60003996401220321FFF759FF2046CA
:4004800010BD38B5054640F69064C0F60004A164E2641A463021FFF74BFF284638BDF0B591B000F0A1F862B64FF4C063C4F2320310229A6041F21017C0F6000740F2343102
:4004C000C0F600016846FFF780FF3D466C460FCC0FC50FCC0FC50FCC0FC594E80F0085E80F0041F2AC01C0F600016846FFF7BCFF01216846FFF7B0FF3E466C460FCC0FC688
:400500000FCC0FC60FCC0FC694E80F0085E80F0097F8223013F0200F09D14FF4C063C4F232031022DA60642001F02EF9F5E74FF4C063C4F2320310225A604FF47A7001F0D7
:4005400023F909E04FF4C063C4F2320310225A6042F2107001F018F94FF4C063C4F2320310229A6041F2D001C0F6000148230B7045234B704C238B70CB704F220A71202071
:40058000487157208871CA7152220A724B7244238B7241F21016C0F6000601230B226846FFF76FFF35466C460FCC0FC50FCC0FC50FCC0FC594E80F0085E80F004FF47A70E0
:4005C00001F0E2F896F83430012BBBD10024092CB8DC4FF4C063C4F232031022DA60642001F0D2F80134F2E708B500F042F800F003F800F028F808BD41F29012C0F600025B
:40060000136899684FF08040C1F800049868B3F87010435823F47F4343F4A0634350126892F86F1003238B4092F86C1092F86E0081400B43916843F00043C1F8003493683E
:40064000D3F80034704710B54FF4C064C4F2320441F60832C1F200020421204600F092FA41F63C32C1F200020521204600F08AFA10BD704708B5012000F0E7FE08BD704772
:4006800030B40023C4F22603D3F8802302F00F0202F1D00153F8213003F00703042B1FD8DFE803F0031E1E080E004FF49053C0F27A0319E040F25833C0F600031B6813E017
:4006C0000023C4F2260302F1C00153F8213003F01F03112B23D0132B24D04FF4FA4303E04FF45853C0F26E13DABBC4F22602D2F8900500F00100D2F88815C1F30171D2F894
:40070000882512F0405F10D00022C4F22602D2F88825C2F30172012A08D0002206E04FF40043E1E74FF40043DEE7012202B108B9032919D10022C4F22602D2F88015C1F388
:400740001101D2F88405C0F30C00D2F88025C2F300620132B3FBF0F301FB03F3B3FBF2F302E0013A012A51D90022C4F22602D2F88023C2F30112D34040F25C32C0F6000254
:4007800013600022C4F22102D2F89010C1F3072101311269120E0132B3FBF2F240F26030C0F600000260B3FBF1F340F25432C0F60002136040F26832C0F60002136003F5B5
:4007C000742202F23F224DF68361C4F21B31A1FB0212C2F3874240F27031C0F600010A7003F2E73344F6D352C1F26202A2FB03239B0940F26C32C0F600021360DB0340F2BC
:400800006432C0F60002136030BC70470021C4F2260102F5C87051F8204004F0010402F5C07551F82500C0F3017051F8251011F0405F0AD00021C4F2260151F82510C1F39F
:400840000171012902D0002100E0012101B10CB9032889D10020C4F2260002F5C07250F8221001F07F0150F82240C4F3042450F82220C2F3044201FB03F3B3FBF4F3B3FB98
:40088000F2F371E708B541F6A430C1F2000000F07FF8FFF7F4FEFFF7F3FE00221146032000F060FE40F6E860C0F6000000F0CDFB41F29013C0F600031B6893F84D3013B98E
:4008C00000F058F908BD41F67030C1F2000000F04DFCF5E708B500F0E4FF4FF46D43CEF20003D3F8882042F47002C3F88820BFF34F8FBFF36F8F00F0D8FF08BD7047704755
:40090000FFF7FCFF72B6144C144DAC4209DA21686268A368043BA2BFC858D050FAE70C34F3E70F490F4A00209142BCBF41F8040BFAE70D480D490860BFF34F8FFFF7CAFF29
:40094000FFF7A0FFFFF7DBFF00F0CCFFFFF7A7FD00F0AEFFFEE70000981E0010B01E0010740E0008B81100080000000808ED00E0FEE7FEE700B504207146084202D0EFF307
:40098000098001E0EFF30880043000F028FFFEE741F29013C0F60003186070470623C0F2520398424BD00623C0F2520398421CD90123CFF2000398424FD00123CFF2000388
:4009C00098422DD90423CFF2000398424AD00523CFF20003984249D00323CFF20003984248D0FF20C0F25200704740282BD008D980282ED0B0F5807F0ED10620C0F252000C
:400A0000704720B3102803D10120C0F250007047FF20C0F252007047FF20C0F252007047B0F1204F1CD00923CAF20003984202D14FF4A0007047FF20C0F252007047062064
:400A4000C0F2520070470220C0F250007047002070470520C0F2520070474FF4A4007047002070470220C0F2520070470320C0F2520070470120C0F25200704738B541F2FD
:400A80009013C0F600031B6893F82E30012B1DD941F29013C0F600031D682B6AB5F8AC2013442C46D5F8B020D358002B17DB41F26803C0F600031868FFF770FF6B6801224A
:400AC0009A6063689B68002BFBD138BD4FF4E97141F65840C1F2000000F071FED8E70220C0F25000F1E741F27803C0F60003186028B102230370FF2343700023438041F2CB
:400B00009013C0F600031B6893F84C2002B9704700B583B0B3F93630ADF800300023019340F62F01C0F60001684600F0EEFDBDF90030002B0ADB03F01F025B0901219140E0
:400B40004FF46142CEF2000242F8231041F29013C0F600031B6893F84D3013B903B05DF804FB022240F6F901C0F60001012000F0C9FBF3E708B540F6D050C0F60000FFF7FA
:400B8000B2FF08BD002800F0FE812DE9F0410646002A00F0FC8114460D46072900F206812368012B00F20A81636833F00F0340F00D81237A33F01F0340F01081E368032B9A
:400BC00000F214812369012B00F218816369012B00F21C81A369012B00F22081E369032B00F22481236A012B00F22881636A012B00F22C81A36A012B00F23081E36A032B85
:400C000000F23481236B072B00F238812768072D00F23C81012F00F24281002F40F048810123AB4073606768072D00F2458137F00F0340F04A81A80041F29012C0F600021D
:400C4000136893F879108B590F22824023EA020207F00F03834013438B51277A072D00F23D8137F01F0340F0428141F29013C0F600031A689369F31ADB0952691B01D11880
:400C8000032D00F23D81D1584FEAC50C1F2000FA0CF021EA000107F01F0707FA0CF70F43D750E768082D00F23881032F00F23E81680041F29012C0F60002136893F87810B1
:400CC0008B590322824023EA020207F00303834013438B512769082D00F23181012F00F23781B3690122AA4023EA020307F00107AF401F43B761D4F81480072D00F2318108
:400D0000B8F1010F00F2368141F29011C0F600010B6893F87AC05CF806000127AF4020EA070008F00102AA4002434CF806206A0002F1100C032303FA0CF31F430B6893F87D
:400D40007B00835923EA0707A36903F00103AB403B43E26902F0030202FA0CF2134383510B6893F87C20B15821F0FF01236A03F00103606A400000F002000343A06A80002B
:400D800000F004000343E06AC00000F018000343206B4001C0B20343AD0005F47E7503FA05F50D43B5500020BDE8F0814F2141F6B840C1F2000000F002FDF1E6502141F642
:400DC000B840C1F2000000F0FAFCEDE6512141F6B840C1F2000000F0F2FCEAE6522141F6B840C1F2000000F0EAFCE7E6532141F6B840C1F2000000F0E2FCE3E6542141F6FC
:400E0000B840C1F2000000F0DAFCDFE6552141F6B840C1F2000000F0D2FCDBE6562141F6B840C1F2000000F0CAFCD7E6572141F6B840C1F2000000F0C2FCD3E6582141F668
:400E4000B840C1F2000000F0BAFCCFE6592141F6B840C1F2000000F0B2FCCBE65A2141F6B840C1F2000000F0AAFCC7E65B2141F6B840C1F2000000F0A2FCC3E65C2141F6D8
:400E8000B840C1F2000000F09AFCBFE640F2313141F61450C1F2000000F091FCBAE640F2323141F61450C1F2000000F088FCB4E60123AB40B360B6E640F2CE3141F61450E2
:400EC000C1F2000000F07BFCB1E640F2CF3141F61450C1F2000000F072FCACE640F2922141F61450C1F2000000F069FCB9E640F2932141F61450C1F2000000F060FCB4E690
:400F00002B1F4A68DB001F20984022EA000207F01F079F4017434F60C3E640F2F26141F61450C1F2000000F04AFCBEE640F2F36141F61450C1F2000000F041FCB8E640F289
:400F4000736141F61450C1F2000000F038FCC5E640F2746141F61450C1F2000000F02FFCBFE640F20D4141F61450C1F2000000F026FCC5E640F20E4141F61450C1F2000011
:400F800000F01DFCC0E60120C0F25A0070470120C0F25A0008E738B541F29013C0F600031B68D3F8B0301B58002B11DA0C4605460B0C1B041BB9A4B26C60002038BD4FF42E
:400FC000397141F65840C1F2000000F0F8FBF2E70120C0F28A00F1E738B50368002B12DA0C460546C2600B0C1B041BB9A4B2AC60002038BD40F2CA2141F65840C1F2000086
:4010000000F0DDFBF2E70120C0F28A00F1E738B504460D4669B141F29013C0F600031B68D3F8B0301B59002B0BDAE3682B60002038BDA32141F67050C1F2000000F0BFFBF2
:40104000E9E70120C0F28A00F2E741F27C03C0F600031B6803B1704741F27C03C0F600031860F8E72DE9F8430446884691461E46089F41F27C03C0F600031B68002B49D0D2
:4010800041F27C03C0F600031B682C2000FB04F01C18F5B21D50C6F307236360360CA66041F29013C0F600031B6893F82E309D4238D241F29013C0F600031B681A6AB3F8AC
:4010C000AC1001FB05252561666893F82F309E4231D241F29013C0F600031B681D6A803605EB46156561A668330C1B0463BB330C1B0493BBB3B243EA0646AE60C4F81C9003
:40110000C4F820800023A36117B1B7F90030A381BDE8F883BF2141F6D050C1F2000000F04EFBADE74FF4E97141F65840C1F2000000F045FBBDE74FF4F77141F65840C1F269
:40114000000000F03CFBC4E740F20D2141F65840C1F2000000F033FBC9E740F20E2141F65840C1F2000000F02AFBC3E7F0B58FB00446002845D0A369072B4AD8E36A002B08
:401180004FD0236B002B54D007AD04F114060FCE0FC537682F6002AD26460FCE0FC533682B6041F29013C0F600031B689B8E079A1344ADF83030089B0D930CAD00953B4655
:4011C000A26AE16A0A98FFF74DFF00210091069B0A460598FFF746FF216B284600F095FABDF93030002B0ADB03F01F015B0901228A404FF46141CEF2000141F823200FB055
:40120000F0BD5C2141F6D050C1F2000000F0D7FAB1E7602141F6D050C1F2000000F0CFFAACE7622141F6D050C1F2000000F0C7FAA7E7632141F6D050C1F2000000F0BFFA47
:40124000A2E7F8B507460E461D461446002A2FD041F27C03C0F600031B68002B31D041F27C03C0F600031B682C2101FB073001FB06314B68012202FA03F31B04466802FA65
:4012800006F602697AB38F6997BB1268002A34DA2288134323600369DC6001238B614D620469330C1B04ABB9B6B2A6600020F8BD40F2071141F6D050C1F2000000F07FFA85
:4012C000C6E74FF4847141F6D050C1F2000000F076FAC4E740F2CA2141F65840C1F2000000F06DFAE0E74FF40170C0F28A00DEE740F20720C0F28A00D9E740F20720C0F222
:401300008A00D4E770B504460E46154641F27C03C0F600031B688BB141F27C03C0F600031B682C2202FB0434236A83B1E369AB4216D9236A43F82560002070BD4FF4B471C4
:4013400041F6D050C1F2000000F039FAE4E74FF4B67141F6D050C1F2000000F030FAE5E740F20A20C0F28A00E7E770B582B000230193044680B12369BBB16369F3B1236A37
:401380002BB36369DD682A0C2AD1ADB2002D4CD163691B6802B070BD40F2DB1141F6D050C1F2000000F00BFAE5E74FF4EE7141F6D050C1F2000000F002FADEE740F2DD11D0
:4013C00041F6D050C1F2000000F0F9F9D7E74FF4EF7141F6D050C1F2000000F0F0F9D0E712041A601B68206941F29013C0F600031B68D3F8B0301B58002BC6DA01A9FFF7CF
:4014000006FE60B9019803681E0CDBB2E2699A4206D9226A52F8233013B1984700E0002631462069FFF7B7FDAFE763691D601B68636A2BB19847002363620023A361A7E7CB
:40144000A36A002BF9D09847F7E710B5044641F27C03C0F600031B6853B141F27C03C0F600031B682C2000FB0430FFF77EFF10BD40F2BB1141F6D050C1F2000000F09FF974
:40148000EBE741F29013C0F600031B6893F82E3083425DD9002960D00B6813F01F0F04D040F20310C0F28A00704770B50D46044641F29013C0F600031B6893F82E309842C4
:4014C00025D241F29013C0F600031B68186AB3F8AC3003FB040441F28006C0F6000634602A68D2080021686800F020FA00212046FFF751FD34689DB12A4600212046FFF7C2
:401500006BFDB0B140F20110C0F28A0070BD4FF4E97141F65840C1F2000000F050F9D0E740F2A23141F65840C1F2000000F047F9E2E741F28003C0F6000300211868FFF7A1
:401540002AFD0028E2D040F20110C0F28A00DDE740F20310C0F28A00704740F20310C0F28A00704710B50446134632B1ABB349BB40F20310C0F28A0010BD0029F6D141F299
:401580009013C0F600031B6893F82E30984210D241F29013C0F600031B681A6AB3F8AC3003FB042441F28003C0F600031C600020E2E74FF4E97141F65840C1F2000000F081
:4015C000FEF8E5E740F6D452C0F600021160536011462046FFF755FFCEE740F20310C0F28A00C9E72DE9F04141F28003C0F600031B68DC682368834234D90D46460900F098
:401600001F00012303FA00F8D1B1002741F28003C0F6000318680368002B1ADA626852F8263013EA080F0FD023EA080342F8263000240021FFF7AFFC85B12046BDE8F081B3
:4016400000F02FF90746E1E74FF48174C0F28804EFE740F20314C0F28804EDE7384600F024F9EAE74FF48274C0F28A04E5E741F28003C0F600031B68DB681A6882420FD992
:40168000410900F01F00012202FA00F05B6853F82130034209D040F20110C0F2880070474FF48270C0F28A0070474FF48070C0F28800704738B54FF46D43CEF200039A6820
:4016C00040F20003C0F600039A4207D0103040F20003C1F2000353F8200038BD0D46044651B104F1100340F20002C0F6000252F8230042F82350F0E740F2411141F63060EF
:40170000C1F2000000F05BF8EBE7C8B338B504460D464368072B19D8B4F900306268002B1CDB5201D2B203F1604303F5614383F800234FF46D43CEF200039A6840F20003B0
:40174000C0F600039A4214D0002038BD3C2141F63060C1F2000000F032F8DDE703F00F035201D2B24EF6FC41CEF2000119440A76DFE72946B4F90000FFF79CFF0020E4E7CD
:401780000120C0F25600704710B50446B4F5004F09D940F26433C0F60003186800F078F8A4F50044F2E740F26C33C0F60003186800FB04F000F06CF810BD01BEFEE738B59D
:4017C0000D4640F6E054C0F6000418220146204600F0FCF8A5610020FFF7EFFFFEE708B5026840F6E053C0F60003DA6142681A6282685A62C2689A620269DA6242691A6373
:4018000082695A63C2699A634FF46D42CEF20002916AD963D16A1964516A5964516B9964926BDA64F1EE103A13F0900F2AD0026A40F6E053C0F600031A65426A5A65826AA0
:401840009A65C26ADA65026B1A66426B5A66826B9A66C26BDA66026C1A67426C5A67826C9A67C26CDA67026DC3F88020426DC3F88420826DC3F88820C26DC3F88C20026E5E
:40188000C3F89020FFF7AAFF08BD0000000000000230800803D001300238FCD100BF00BF7047EFF3108072B6704780F31088704738B50A4C0A4D641BA4100AD004F18043ED
:4018C000013B05EB8305013C55F804399847002CF9D1BDE8384000F011B900BFB0070008AC07000870B50D4E0D4D761BB61006D00024013455F8043B9847A642F9D1094EB4
:40190000094D761B00F0F4F8B61006D00024013455F8043B9847A642F9D170BDA4070008A4070008AC070008A4070008F0B4860746D0541E002A3CD0CAB2034602E014F136
:40194000FF3436D303F8012B9D07F8D1032C29D9CDB245EA05250F2C45EA054533D9A4F11006360903F1200707EB061703F1100242E9045542E902551032BA42F8D1721C19
:4019800014F00C0F03EB021204F00F0613D0331F23F003030433134442F8045B9342FBD106F003042CB1C9B21C4403F8011B9C42FBD1F0BC704734461346002CF3D1F8E76C
:4019C00014460346C2E71A462646E0E770B440EA0104A30727D1032A25D90B460646194653F8045BA5F1013424EA050414F0803F06D1043A032A46F8045B1946EFD882B165
:401A000033460C7803F8014B551E74B132442E4405E011F8014FF51A03F8014B2CB19A42F7D170BC70470646E9E7002DF9D01D44002203F8012BAB42FBD170BC704700BFD3
:401A4000024B13B1024800F005B8704700000000B1180010002301461A46184600F004B8704700BF704700BF2DE9F0411E4C0546206890461F460E46FFF7F2FF1B4B1A682C
:401A8000D2F8483133B35A6820681F2A27DC4DB9911C01325A6043F82160FFF7E3FF0020BDE8F08103EB82010124C1F8888004FA02FED3F88841022D44EA0E0CC3F888C199
:401AC000C1F80871E4D1D3F88C114EEA0104C3F88C41DDE702F5A673C2F84831D3E7FFF7C1FF4FF0FF30DBE7A0070008901E0010F8B500BFF8BC08BC9E467047F8B500BFD3
:401B0000F8BC08BC9E46704700000000060000000000000000000000000000000000000001000000010000000000000000000000000000000000000000000000000000008A
:401B40000600000000000000000000000000000000000000010000000100000000000000000000000000000000000000000000000300000001000000010000000000000058
:401B80000503600004000000010000000000000001000000060460000800000048100008750600100000214000002540000001400000344000002440000031400000324098
:401BC00000001F41000023400000114010101010101010101010800019005500F0000501053B04101C0101000FC000000004000001010101011D3A577896000820001012FD
:401C000008000000001F00000010000F002000023F06080E00080009000A000B24282C3034000000100000009000000088000000080000008000000004F0000000F000004B
:401C4000400200002005A000D00100018001A00120000000100000002F566F6C756D65732F446174612F5653636F64652F4749542F5653436F64655F4F6E657468696E78F1
:401C80005061636B5F6D61634F532F50444C5F312E332E312E313439392F647269766572732F696E636C7564652F63795F6970635F6472762E6800002F566F6C756D6573CD
:401CC0002F446174612F5653636F64652F4749542F5653436F64655F4F6E657468696E785061636B5F6D61634F532F50444C5F312E332E312E313439392F647269766572E6
:401D0000732F736F757263652F63795F6770696F2E6300002F566F6C756D65732F446174612F5653636F64652F4749542F5653436F64655F4F6E657468696E785061636BFF
:401D40005F6D61634F532F50444C5F312E332E312E313439392F647269766572732F696E636C7564652F63795F6770696F2E68002F566F6C756D65732F446174612F565342
:401D8000636F64652F4749542F5653436F64655F4F6E657468696E785061636B5F6D61634F532F50444C5F312E332E312E313439392F647269766572732F736F7572636573
:401DC0002F63795F6970635F6472762E630000002F566F6C756D65732F446174612F5653636F64652F4749542F5653436F64655F4F6E657468696E785061636B5F6D6163AA
:401E00004F532F50444C5F312E332E312E313439392F647269766572732F736F757263652F63795F6970635F706970652E6300002F566F6C756D65732F446174612F5653CF
:401E4000636F64652F4749542F5653436F64655F4F6E657468696E785061636B5F6D61634F532F50444C5F312E332E312E313439392F647269766572732F736F75726365B2
:401E80002F63795F737973696E742E630000000078030008000000000000001000000008E0020000B81E0010E0020008F00A0000740E00084403000001006000900E00085E
:401EC00000006000900E000802800000000000000000000000000000000000000000000000000000000000000000000000000000000000000000000000000000000000005A
:401F000000000000000000000000000000000001F0020008F1006400000000000000000000000000000000000000000000127A0000127A0000127A0000093D000000A00FB8
:401F400000127A00401F000008000000000000000000000064060008CC060008340700080000000000000000000000000000000000000000000000000000000000000000DF
:401F80000000000000000000000000000000000000000000000000000000000000000000000000000000000000000000000000000000000000000000000000000000000021
:401FC00000000000000000000000000000000000000000000000000000000000000000000000000000000000000000000000000000000000000000000100000000000000E0
:402000000E33CDAB34126DE6ECDE05000B00000000000000000000000000000000000000000000000000000000000000000000000000000000000000000000000000000074
:402040000000000000000000000000000000000000000000000000000000000000000000000000000000000000000000000000000000000000000000000000000000000060
:402080000000000000000000000000000000000000000000000000000000000000000000000000000000000000000000000000000000000000000000000000000000000020
:4020C00000000000000000000000000000000000000000000000000000000000000000000000000000000000000000000000000000000000000000000000000000000000E0
:40210000000000000000000000000000000000000000000000000000000000000000000000000000000000000000000000000000000000000000000000000000000000009F
:40214000000000000000000000000000000000000000000000000000000000000000000000000000000000000000000000000000000000000000000000000000000000005F
:40218000000000000000000000000000000000000000000000000000000000000000000000000000000000000000000000000000000000000000000000000000000000001F
:4021C00000000000000000000000000000000000000000000000000000000000000000000000000000000000000000000000000000000000000000000000000000000000DF
:40220000000000000000000000000000000000000000000000000000000000000000000000000000000000000000000000000000000000000000000000000000000000009E
:40224000000000000000000000000000000000000000000000000000000000000000000000000000000000000000000000000000000000000000000000000000000000005E
:40228000000000000000000000000000000000000000000000000000000000000000000000000000000000000000000000000000000000000000000000000000000000001E
:4022C00000000000000000000000000000000000000000000000000000000000000000000000000000000000000000000000000000000000000000000000000000000000DE
:40230000000000000000000000000000000000000000000000000000000000000000000000000000000000000000000000000000000000000000000000000000000000009D
:40234000000000000000000000000000000000000000000000000000000000000000000000000000000000000000000000000000000000000000000094110008411A001045
:4023800005030010E102001080B2C100002839D041F29013C0F600031B681A6AB3F8AC30C3EBC303D358002BF2DA4FF48273C4F226033E221A604FF48473C4F2260341F6FA
:4023C0001E721A600023C4F226030622C3F8182521F07F41C3F81C15D3F81C3541F29013C0F600031B681A6AB3F8AC30C3EBC303134400225A600023C4F22603D3F81C35F6
:40240000002BF8DA7047F8B541F29013C0F600031B6893F82E30052B42D941F29015C0F600052A68176AB2F8AC3003EB83031F4452684FF26003D458A4B200F0ADFA06462F
:402440002B681968D3F88C208A58013C032C23D8032A2ED01968D3F880208B581B0E8A58C2F30722581C02FB000044F24023C0F20F0303FB00F040F25C33C0F600031B68EC
:4024800044F6D352C1F26202A2FB03239B09B0FBF3F08230FFF778FF304600F069FAF8BD4FF4E97141F65840C1F2000000F070FAB3E70B22C1F200621278002ACAD1082246
:4024C000BA601968D3F88C208A58032AF9D0C1E74378FF2B00D0704710B500F05DFA044641F29013C0F600031B6893F82E30032B18D941F29013C0F600031B681A6AB3F82D
:40250000AC3003EB43031344DB685A68136843F001031360136813F0010FFBD1204600F027FA10BD4FF4E97141F65840C1F2000000F02EFADDE72DE9F84305460E4641F24E
:402540009013C0F600031B6893F82E30012B59D941F29013C0F600031B681C6AB3F8AC201444D3F8B070274493F84C30002B00F0A2800B23C1F200631B78002B61D141F2CD
:402580009013C0F600031B6893F82E30052B42D941F29013C0F6000319680A6AB1F8AC3003EB83031344D1F8B020D358002BC0F2A180002000F0E0F940F20113C0F2880306
:4025C000984200F09B8041F27802C0F60002002312680121184600F0D7F928BB4FF00008002000F0C9F940F20113C0F2880398421ED044F6EF13C0F20203984518D808F1B4
:402600000108EDE74FF4E97141F65840C1F2000000F0BEF99CE74FF4E97141F65840C1F2000000F0B5F9B3E70524C0F2520423E044F6EF13C0F20203984563D84FF0010995
:4026400001E04FF0000900F0A7F980460023C4F22603D3F81C35002B11DB0524C0F25204B9F1000F05D00121002000F07DF90028F9D1404600F07CF92046BDE8F88341F2A9
:402680006802C0F600020121204600F089F918B10524C0F25204E3E73046FFF775FE35B13B68002BFCDB00F06BF90446D8E70124C0F25004D4E700F06FF9064641F268024C
:4026C000C0F600020121204600F06AF938B96DB13B68002BFCDB00F053F9044602E00524C0F25204304600F043F9C5E70124C0F25004F7E70524C0F25204BDE70524C0F2F3
:402700005204B9E70524C0F25204B5E7F0B441F29013C0F600031A68116AB2F8AC30C3EBC303194455680B68002BFCDA4FF0B0535B78E3B14FF0B0535B78DBB2212B16D0A1
:4027400041F28403C0F60003CB6041F29013C0F600031B681C6AB3F8AC20C2EBC2022244002454601C68D3F890301C4445E0CB6843F00103CB60136AB2F8AC40C4EBC4044A
:402780002344DC6814F0020FDFD0DE68B6B21768D2F880403C59240A240404F47F0CD2F884403F593F0A4CEA07643443DC601468D2F88020A35823F47F4343F41063A3506B
:4027C00041F29012C0F6000213681E68D3F88440335923F47F4343F41063335113681A68D3F880401459D3F88430D358ADE730BF236803F00303022B18D14FF46D43CEF2BA
:4028000000031A6942F004021A610128EFD120BF41F2A403C0F600031B7803B120BF41F2A403C0F6000301221A70E1E70B68002BFCDA4FF0B0535B78002B3FD04FF0B053D1
:402840005B78DBB2212B39D0D5F80C31002B40F087804FF48471C4F226010E68C4F22603D3F818454FF48272C4F22602106841F61E770F600621C3F818153E211160442298
:40288000C3F81C250023C4F22603D3F81C35002BF8DA4FF0AA33C5F80C314FF48473C4F226031E600023C4F22603C3F818454FF48273C4F226031860012040E041F2901394
:4028C000C0F6000319680A6AB1F8AC30C3EBC3031344DA6812F0020F40D00868D1F88010425822F47F42DB681B0C1B029BB21343435041F29013C0F6000319680D68D1F830
:4029000084402B5923F47F43086AB1F8AC20C2EBC2020244D268120E43EA02232B51012041F29013C0F600031A68136AB2F8AC20C2EBC2021344DA6822F00102DA6041F2FF
:402940009013C0F600031B681A6AB3F8AC30C3EBC303134400225A60F0BC70470020DFE70020ECE7000000005FF800F0E51500105FF800F0AB1800105FF800F06F16001043
:402980005FF800F07D0A00105FF800F0431200105FF800F0BF1700105FF800F0A31800105FF800F0D90F00100000000000000000000000000000000000000000000000000F
:4029C00000000000000000000000000000000000000000000000000000000000000000000000000000000000000000000000000000000000000000000000000000000000D7
:0200000490303A
:020000007F2659
:0200000490501A
:0C0000000000000000000000000E7F2641
:00000001FF