:020000041000EA
:4000000000F00308690800100D000000DD080010DD080010DD080010DD08001000000000000000000000000000000000D9080010D908001000000000D9080010D90800109F
:40004000D9080010D9080010D9080010D9080010D9080010D9080010D9080010D9080010D9080010D9080010D9080010D9080010D9080010D9080010D9080010D908001070
:40008000D9080010D9080010D9080010D9080010D9080010D9080010D9080010D9080010D9080010D9080010D9080010D9080010D9080010D9080010D9080010D908001030
:4000C000D9080010D9080010D9080010D9080010D9080010D9080010D9080010D9080010D9080010D9080010D9080010D9080010D9080010D9080010D9080010D9080010F0
:40010000D9080010D9080010D9080010D9080010D9080010D9080010D9080010D9080010D9080010D9080010D9080010D9080010D9080010D9080010D9080010D9080010AF
:40014000D9080010D9080010D9080010D9080010D9080010D9080010D9080010D9080010D9080010D9080010D9080010D9080010D9080010D9080010D9080010D90800106F
:40018000D9080010D9080010D9080010D9080010D9080010D9080010D9080010D9080010D9080010D9080010D9080010D9080010D9080010D9080010D9080010D90800102F
:4001C000D9080010D9080010D9080010D9080010D9080010D9080010D9080010D9080010D9080010D9080010D9080010D9080010D9080010D9080010D9080010D9080010EF
:40020000D9080010D9080010D9080010D9080010D9080010D9080010D9080010D9080010D9080010D9080010D9080010D9080010D9080010D9080010D9080010D9080010AE
:40024000D9080010D9080010D9080010D9080010D9080010D9080010D9080010D9080010D9080010D9080010D9080010D9080010D9080010D9080010D9080010D90800106E
:40028000D9080010D9080010D9080010D9080010D9080010D9080010D9080010D9080010D9080010D9080010D9080010D9080010D9080010D9080010D9080010D90800102E
:4002C000D9080010D9080010D9080010D9080010D9080010D9080010D9080010D908001010B5054C237833B9044B13B10448AFF300800123237010BDA40D0008000000001B
:40030000F41B001008B5034B1BB103490348AFF3008008BD00000000A80D0008F41B001070470000014B01221A607047D80F000870B50646194B197093F83D30DB0911D00C
:400340000122164B83F83C203446154D0FCD0FC40FCD0FC40FCD0FC495E80F0084E80F00304670BD14460D4A92F83D3043F0800382F83D3000200B4B18600B4B0B4A01218F
:4003800000F074FE38B9002CDED0044B93F83D30DB09FAD1D8E70322D3E700BFC00D0008C80D0008D80F000825030010E002000870B590B006460D4600221949012000F061
:4003C000A7FE184B184C5C60DC60656094F83D3043F0200384F83D3094F83D306FF3C71384F83D30012211466846FFF7A1FFA36BB12B02D9A36BB52B03D90B4B052283F839
:400400003C203446094D0FCD0FC40FCD0FC40FCD0FC495E80F0084E80F00304610B070BD21030010E0020008C00D0008C80D000810B504460A462021FFF77AFF204610BD07
:4004400010B50446034B996401220321FFF770FF204610BDC00D000838B50546044CA164E2641A463021FFF763FF284638BD00BFC00D0008F0B591B000F08AF862B63F4BA1
:4004800010229A603E4F3F496846FFF791FF3D466C460FCC0FC50FCC0FC50FCC0FC594E80F0085E80F0038496846FFF7C9FF01216846FFF7BDFF3E466C460FCC0FC60FCC4E
:4004C0000FC60FCC0FC694E80F0085E80F0097F8223013F0200F06D1284B1022DA60642001F008F8F8E7254B10225A604FF47A7001F000F806E0214B10225A6042F21070EF
:4005000000F0F8FF1D4B10229A60204948230B7045234B704C238B70CB704F220A712020487157208871CA7152220A724B7244238B72134E01230B226846FFF78DFF35462B
:400540006C460FCC0FC50FCC0FC50FCC0FC594E80F0085E80F004FF47A7000F0CBFF96F83430012BC7D10024092CC4DC034B1022DA60642000F0BEFF0134F5E700063240AB
:400580004010000834030008DC0F00080010000808B500F03FF800F003F800F027F808BD114A136899684FF08040C1F800049868B3F87010435823F47F4343F4A0634350F7
:4005C000126892F86F1003238B4092F86C1092F86E0081400B43916843F00043C1F800349368D3F800347047C010000810B5064C064A0421204600F057FA054A0521204687
:4006000000F052FA10BD00BF00063240681800109C180010704708B5012000F009FE08BD7047000030B4654BD3F8802302F00F0202F1D00153F8213003F00703042B17D89E
:40064000DFE803F00316160508005D4B11E05D4B1B680EE002F1C003584951F8233003F01F03112B1DD0132B1ED04FF4FA4300E0554BB2BB514AD2F8900500F00100D2F853
:400680008815C1F30171D2F8882512F0405F0ED04A4AD2F88825C2F30172012A08D0002206E04FF40043E4E74FF40043E1E7012202B108B9032917D1404AD2F88015C1F35C
:4006C0001101D2F88405C0F30C00D2F88025C2F300620132B3FBF0F301FB03F3B3FBF2F302E0013A012A32D9344AD2F88023C2F30112D340354A1360354AD2F89010C1F35F
:40070000072101311269120E0132B3FBF2F231480260B3FBF1F3304A1360304A136003F5742202F23F222E49A1FB0212C2F387422C490A7003F2E7332B4AA2FB03239B0956
:400740002A4A1360DB032A4A136030BC70471B4902F5C87051F8204004F0010402F5C07551F82500C0F3017051F8251011F0405F09D02946114D55F82110C1F301710129A5
:4007800002D0002100E0012101B10CB90328ABD10A4C02F5C07254F8221001F07F0154F82200C0F3042054F82220C2F3044201FB03F3B3FBF0F3B3FBF2F395E700002640F2
:4007C00000127A005803000800366E015C0300080000214060030008540300086803000883DE1B4370030008D34D62106C0300086403000808B50D4800F07EF8FFF710FF31
:40080000FFF710FF00221146032000F081FD084800F054FB074B1B6893F84D3013B900F03BF908BD044800F0C1FBF8E704190010180E0008C0100008D018001008B500F0D9
:40084000E0FE074AD2F8883043F47003C2F88830BFF34F8FBFF36F8F00F0D7FE08BD00BF00ED00E070477047FFF7FCFF72B6144C144DAC4209DA21686268A368043BA2BF3E
:40088000C858D050FAE70C34F3E70F490F4A00209142BCBF41F8040BFAE70D480D490860BFF34F8FFFF7CAFFFFF7A4FFFFF7DBFF00F0C8FEFFF7DEFD00F0AAFEFEE70000E6
:4008C000F81B0010101C0010A40D0008E81000080000000808ED00E0FEE7FEE700B504207146084202D0EFF3098001E0EFF30880043000F029FEFEE7014B1860704700BF6D
:40090000C0100008214B98422DD00ED9204B984231D01DD91F4B984232D00133984231D0023B984230D01C48704740281DD006D980281ED0B0F5807F08D114487047B0B137
:40094000102801D1154870471348704712487047B0F1204F12D0124B984202D14FF4A00070470D487047094870470E487047002070470D4870474FF4A40070470020704727
:400980000A4870470A4870470A48704706005200010000F0040000F0FF00520001005000090000A0020050000500520002005200030052000100520038B5134B1B6893F896
:4009C0002E30012B17D9104B1D682B6AB5F8AC2013442C46D5F8B020D358002B11DB0B4B1868FFF78FFF6B6801229A6063689B68002BFBD138BD4FF4E971054800F094FD78
:400A0000E1E70448F6E700BFC0100008980F0008B8190010020050001A4B186028B102230370FF23437000234380174B1B6893F84C2002B9704700B583B0B3F93630ADF856
:400A40000030002301931149684600F019FDBDF90030002B07DB03F01F015B0901228A400B4941F82320084B1B6893F84D3013B903B05DF804FB02220649012000F048FBE2
:400A8000F6E700BFA80F0008C01000081D08000800E100E0D908000808B50248FFF7BCFF08BD00BF000D0008002800F0A4812DE9F0410646002A00F0A08114460D460729F3
:400AC00000F2FA802368012B00F2FB80636833F00F0340F0FB80237A33F01F0340F0FB80E368032B00F2FC802369012B00F2FD806369012B00F2FE80A369012B00F2FF800F
:400B0000E369032B00F20081236A012B00F20181636A012B00F20281A36A012B00F20381E36A032B00F20481236B072B00F205812768072D00F20681012F00F20981002F3D
:400B400040F00C810123AB4073606768072D00F2098137F00F0340F00B81A800A84B1B6893F879108B590F22824023EA020207F00F03834013438B51277A072D00F2FE8005
:400B800037F01F0340F000819D4B1A689369F31ADB0952691B01D118032D00F2FB80D1584FEAC50C1F2000FA0CF021EA000107F01F0707FA0CF70F43D750E768082D00F203
:400BC000F680032F00F2F98068008D4B1B6893F878108B590322824023EA020207F00303834013438B512769082D00F2EC80012F00F2EF80B3690122AA4023EA020307F058
:400C00000107AF401F43B761D4F81480072D00F2E680B8F1010F00F2E88079490B6893F87AC05CF806000127AF4020EA070008F00102AA4002434CF806206A0002F1100CBB
:400C4000032303FA0CF31F430B6893F87B00835923EA0707A36903F00103AB403B43E26902F0030202FA0CF2134383510B6893F87C20B15821F0FF01236A03F00103606AAC
:400C8000400000F002000343A06A800000F004000343E06AC00000F018000343206B4001C0B20343AD0005F47E7503FA05F50D43B5500020BDE8F0814F21524800F034FCD7
:400CC00000E750214F4800F02FFCFFE651214D4800F02AFCFFE652214A4800F025FCFFE65321484800F020FCFEE65421454800F01BFCFDE65521434800F016FCFCE65621CC
:400D0000404800F011FCFBE657213E4800F00CFCFAE658213B4800F007FCF9E65921394800F002FCF8E65A21364800F0FDFBF7E65B21344800F0F8FBF6E65C21314800F087
:400D4000F3FBF5E640F231312F4800F0EDFBF3E640F232312C4800F0E7FBF0E60123AB40B360F2E640F2CE31274800F0DDFBF0E640F2CF31244800F0D7FBEEE640F29221EC
:400D8000214800F0D1FBFBE640F293211E4800F0CBFBF9E62B1F4A68DB001F20984022EA000207F01F079F4017434F6005E740F2F261154800F0B8FB03E740F2F361124810
:400DC00000F0B2FB00E740F273610F4800F0ACFB0DE740F274610C4800F0A6FB0AE740F20D41094800F0A0FB13E740F20E41064800F09AFB11E70548704704485AE700BFB8
:400E0000C0100008181A0010741A001001005A0038B50C4B1B68D3F8B0301B58002B0EDA0C4605460B0C1B041BB9A4B26C60002038BD4FF43971044800F076FBF5E7034808
:400E4000F6E700BFC0100008B819001001008A0038B50368002B0FDA0C460546C2600B0C1B041BB9A4B2AC60002038BD40F2CA21024800F059FBF5E70148F6E7B819001058
:400E800001008A0038B504460D4651B1084B1B68D3F8B0301B59002B08DAE3682B60002038BDA321034800F03FFBEFE70248F7E7C0100008D01A001001008A00034B1B68C9
:400EC00003B17047014B1860FBE700BFAC0F00082DE9F8430446884691461E46089F2F4B1B68002B3DD02D4B1B682C2000FB04F01C18F5B21D50C6F307236360360CA66073
:400F0000274B1B6893F82E309D422FD2244B1B681A6AB3F8AC1001FB05252561666893F82F309E4228D21E4B1B681D6A803605EB46156561A668330C1B041BBB330C1B04FE
:400F400033BBB3B243EA0646AE60C4F81C90C4F820800023A36117B1B7F90030A381BDE8F883BF210F4800F0DFFABCE74FF4E9710D4800F0D9FAC9E74FF4F7710A4800F0CB
:400F8000D3FAD0E740F20D21074800F0CDFAD5E740F20E21044800F0C7FAD2E7AC0F0008C0100008301B0010B8190010F0B58FB0044600283FD0A369072B41D8E36A002B69
:400FC00043D0236B002B45D007AD04F114060FCE0FC537682F6002AD26460FCE0FC533682B601F4B1B689B8E079A1344ADF83030089B0D930CAD00953B46A26AE16A0A985E
:40100000FFF766FF00210091069B0A460598FFF75FFF216B284600F033FABDF93030002B07DB03F01F015B0901228A400D4941F823200FB0F0BD5C210B4800F075FABAE715
:401040006021094800F070FAB8E76221064800F06BFAB6E76321044800F066FAB4E700BFC010000800E100E0301B0010F8B506460F461D46144642B3204B1B685BB31F4B0E
:401080001B682C2101FB063001FB07314B68012202FA03F31B04466802FA06F6026932B38F6937BB1268002A25DA2288134323600369DC6001238B614D620469330C1B04DB
:4010C0007BB9B6B2A6600020F8BD40F207110C4800F02AFAD0E74FF48471094800F024FACDE740F2CA21074800F01EFAE9E70648EAE70648E8E70548E6E700BFAC0F0008A9
:40110000301B0010B819001004028A0007028A0070B504460E4615460F4B1B6873B10E4B1B682C2202FB0434236A6BB1E369AB4210D9236A43F82560002070BD4FF4B47105
:40114000064800F0F1F9EAE74FF4B671034800F0EBF9EBE70248F0E7AC0F0008301B00100A028A0070B582B000230193044680B12369A3B16369C3B1236AE3B16369DD686B
:401180002A0C1ED1ADB2002D3DD163691B6802B070BD40F2DB11244800F0C6F9E8E74FF4EE71214800F0C0F9E4E740F2DD111E4800F0BAF9E0E74FF4EF711B4800F0B4F928
:4011C000DCE712041A601B682069184B1B68D3F8B0301B58002BD5DA01A9FFF753FE60B9019803681E0CDBB2E2699A4206D9226A52F8233013B1984700E000263146206915
:40120000FFF706FEBEE763691D601B68636A2BB19847002363620023A361B6E7A36A002BF9D09847F7E700BF301B0010C010000810B50446084B1B683BB1074B1B682C206D
:4012400000FB0430FFF78EFF10BD40F2BB11034800F06AF9F1E700BFAC0F0008301B0010264B1B6893F82E30834242D9002942D00B6813F01F0F01D02148704770B50D4699
:4012800004461E4B1B6893F82E3098421CD21B4B1B68186AB3F8AC3003FB0404194E34602A68D2080021686800F0F0F900212046FFF7AEFD34686DB12A4600212046FFF74F
:4012C000C7FD68B1104870BD4FF4E9710F4800F02BF9DCE740F2A2310C4800F025F9EBE70021084B1868FFF793FD0028EBD00648E9E7034870470248704700BFC010000873
:4013000003018A00B00F000801018A00B819001010B5044613461AB11BB3D1B9124810BD0029F9D1114B1B6893F82E3098420AD20E4B1B681A6AB3F8AC3003FB04240C4B64
:401340001C600020EBE74FF4E9710A4800F0ECF8EEE7094A1160536011462046FFF780FFDDE70148DBE700BF03018A00C0100008B00F0008B8190010040D00082DE9F041C2
:40138000194B1B68DD682B6883422BD90C46460900F01F00012303FA00F8B9B10027124B18680368002B17DA6A6852F8263013EA080F0FD023EA080342F826300025002194
:4013C000FFF726FD54B12846BDE8F08100F019F90746E4E7054DF2E7054DF3E7384600F014F9F0E7034DEEE7B00F0008020188000301880004018A000B4B1B68DB681A6858
:4014000082420CD9410900F01F00012202FA00F05B6853F82130034203D004487047044870470448704700BFB00F00080101880004018A000001880038B50D4B9A680D4B54
:401440009A4204D010300C4B53F8200038BD0D46044639B104F11003064A52F8230042F82350F3E740F24111044800F05DF8F1E700ED00E00000000800000010901B001065
:4014800060B338B504460D464368072B13D8B4F900306268002B13DB5201D2B203F1604303F5614383F800230D4B9A680D4B9A420DD0002038BD3C210B4800F035F8E6E745
:4014C00003F00F035201D2B20849CA54ECE72946B4F90000FFF7B0FF0020EBE70448704700ED00E000000008901B001014ED00E00100560010B50446B4F5004F06D9074B18
:40150000186800F075F8A4F50044F5E7044B186800FB04F000F06CF810BD00BF640300086C03000801BEFEE738B50D46044C18220146204600F0FAF8A5610020FFF7F2FF87
:40154000100D0008FEE7000008B50268254BDA6142681A6282685A62C2689A620269DA6242691A6382695A63C2699A631E4A916AD963D16A1964516A5964516B9964926B79
:40158000DA64F1EE103A13F0900F27D0026A154B1A65426A5A65826A9A65C26ADA65026B1A66426B5A66826B9A66C26BDA66026C1A67426C5A67826C9A67C26CDA67026D40
:4015C000C3F88020426DC3F88420826DC3F88820C26DC3F88C20026EC3F89020FFF7B2FF08BD00BF100D000800ED00E0000000000230800803D001300238FCD100BF00BF5F
:401600007047EFF3108072B6704780F31088704738B50A4C0A4D641BA4100AD004F18043013B05EB8305013C55F804399847002CF9D1BDE8384000F011B900BFB0070008DC
:40164000AC07000870B50D4E0D4D761BB61006D00024013455F8043B9847A642F9D1094E094D761B00F0F4F8B61006D00024013455F8043B9847A642F9D170BDA407000826
:40168000A4070008AC070008A4070008F0B4860746D0541E002A3CD0CAB2034602E014F1FF3436D303F8012B9D07F8D1032C29D9CDB245EA05250F2C45EA054533D9A4F140
:4016C0001006360903F1200707EB061703F1100242E9045542E902551032BA42F8D1721C14F00C0F03EB021204F00F0613D0331F23F003030433134442F8045B9342FBD18A
:4017000006F003042CB1C9B21C4403F8011B9C42FBD1F0BC704734461346002CF3D1F8E714460346C2E71A462646E0E770B440EA0104A30727D1032A25D90B460646194633
:4017400053F8045BA5F1013424EA050414F0803F06D1043A032A46F8045B1946EFD882B133460C7803F8014B551E74B132442E4405E011F8014FF51A03F8014B2CB19A42D1
:40178000F7D170BC70470646E9E7002DF9D01D44002203F8012BAB42FBD170BC704700BF024B13B1024800F005B870470000000011160010002301461A46184600F004B89D
:4017C000704700BF704700BF2DE9F0411E4C0546206890461F460E46FFF7F2FF1B4B1A68D2F8483133B35A6820681F2A27DC4DB9911C01325A6043F82160FFF7E3FF002008
:40180000BDE8F08103EB82010124C1F8888004FA02FED3F88841022D44EA0E0CC3F888C1C1F80871E4D1D3F88C114EEA0104C3F88C41DDE702F5A673C2F84831D3E7FFF763
:40184000C1FF4FF0FF30DBE7A0070008F01B0010F8B500BFF8BC08BC9E467047F8B500BFF8BC08BC9E467047000000000600000000000000000000000000000000000000AA
:40188000010000000100000000000000000000000000000000000000000000000000000006000000000000000000000000000000000000000100000001000000000000001E
:4018C000000000000000000000000000000000000300000001000000010000000000000005036000040000000100000000000000010000000604600008000000780F000874
:40190000170600100000214000002540000001400000344000002440000031400000324000001F41000023400000114010101010101010101010800019005500F000050120
:40194000053B04101C0101000FC000000004000001010101011D3A57789600082000101208000000001F00000010000F002000023F06080E00080009000A000B24282C3086
:4019800034000000100000009000000088000000080000008000000004F0000000F00000400200002005A000D00100018001A00120000000100000002F566F6C756D65731A
:4019C0002F446174612F5653636F64652F4749542F5653436F64655F4F6E657468696E785061636B5F6D61634F532F50444C5F312E332E312E313439392F647269766572E9
:401A0000732F696E636C7564652F63795F6970635F6472762E6800002F566F6C756D65732F446174612F5653636F64652F4749542F5653436F64655F4F6E657468696E78F1
:401A40005061636B5F6D61634F532F50444C5F312E332E312E313439392F647269766572732F736F757263652F63795F6770696F2E6300002F566F6C756D65732F44617457
:401A8000612F5653636F64652F4749542F5653436F64655F4F6E657468696E785061636B5F6D61634F532F50444C5F312E332E312E313439392F647269766572732F696EF7
:401AC000636C7564652F63795F6770696F2E68002F566F6C756D65732F446174612F5653636F64652F4749542F5653436F64655F4F6E657468696E785061636B5F6D6163D3
:401B00004F532F50444C5F312E332E312E313439392F647269766572732F736F757263652F63795F6970635F6472762E630000002F566F6C756D65732F446174612F565334
:401B4000636F64652F4749542F5653436F64655F4F6E657468696E785061636B5F6D61634F532F50444C5F312E332E312E313439392F647269766572732F736F75726365B5
:401B80002F63795F6970635F706970652E6300002F566F6C756D65732F446174612F5653636F64652F4749542F5653436F64655F4F6E657468696E785061636B5F6D61638A
:401BC0004F532F50444C5F312E332E312E313439392F647269766572732F736F757263652F63795F737973696E742E630000000078030008000000000000001000000008B1
:401C0000E0020000181C0010E0020008200A0000A40D00084403000001006000C00D000800006000C00D00080280000000000000000000000000000000000000000000007D
:401C4000000000000000000000000000000000000000000000000000000000000000000000000000000000000000000000000001F0020008F1006400000000000000000014
:401C800000000000000000000000000000127A0000127A0000127A0000093D000000A00F00127A00401F000008000000000000000000000064060008CC0600083407000809
:401CC00000000000000000000000000000000000000000000000000000000000000000000000000000000000000000000000000000000000000000000000000000000000E4
:401D000000000000000000000000000000000000000000000000000000000000000000000000000000000000000000000000000000000000000000000000000000000000A3
:401D400000000000000000000000000000000000000000000000000001000000000000000E33CDAB34126DE6ECDE05000B0000000000000000000000000000000000000036
:401D80000000000000000000000000000000000000000000000000000000000000000000000000000000000000000000000000000000000000000000000000000000000023
:401DC00000000000000000000000000000000000000000000000000000000000000000000000000000000000000000000000000000000000000000000000000000000000E3
:401E000000000000000000000000000000000000000000000000000000000000000000000000000000000000000000000000000000000000000000000000000000000000A2
:401E40000000000000000000000000000000000000000000000000000000000000000000000000000000000000000000000000000000000000000000000000000000000062
:401E80000000000000000000000000000000000000000000000000000000000000000000000000000000000000000000000000000000000000000000000000000000000022
:401EC00000000000000000000000000000000000000000000000000000000000000000000000000000000000000000000000000000000000000000000000000000000000E2
:401F000000000000000000000000000000000000000000000000000000000000000000000000000000000000000000000000000000000000000000000000000000000000A1
:401F40000000000000000000000000000000000000000000000000000000000000000000000000000000000000000000000000000000000000000000000000000000000061
:401F80000000000000000000000000000000000000000000000000000000000000000000000000000000000000000000000000000000000000000000000000000000000021
:401FC00000000000000000000000000000000000000000000000000000000000000000000000000000000000000000000000000000000000000000000000000000000000E1
:4020000000000000000000000000000000000000000000000000000000000000000000000000000000000000000000000000000000000000000000000000000000000000A0
:402040000000000000000000000000000000000000000000000000000000000000000000000000000000000000000000000000000000000000000000000000000000000060
:402080000000000000000000000000000000000000000000000000000000000000000000000000000000000000000000000000000000000000000000000000000000000020
:4020C000000000000000000000000000000000000000000000000000C4100008A117001005030010E102001080B2C10050B3164B1B681A6AB3F8AC30C3EBC303D358002B82
:40210000F5DA124B3E221A60043341F61E721A60A3F584730622C3F8182521F07F41C3F81C15D3F81C35084B1B681A6AB3F8AC30C3EBC303134400225A60054BD3F81C35A5
:40214000002BFADA704700BFC01000080401264000002640F8B5284B1B6893F82E30052B36D9254F3A68166AB2F8AC3003EB83031E4452684FF26003D458A4B200F054FA66
:4021800005463B681968D3F88C208A58013C032C1AD8032A22D01968D3F880208B581B0E8A58C2F30722581C02FB0000134B03FB00F0134B1B68134AA2FB03239B09B0FB15
:4021C000F3F08230FFF790FF284600F01DFAF8BD4FF4E9710C4800F023FAC2E70B4A1278002AD8D10822B2601968D3F88C208A58032AF9D0CFE700BFC010000840420F0058
:402200005C030008D34D6210B81900100B0000164378FF2B00D0704710B500F005FA0446104B1B6893F82E30032B15D90D4B1B681A6AB3F8AC3003EB43031344DB685A68E0
:40224000136843F001031360136813F0010FFBD1204600F0D9F910BD4FF4E971024800F0DFF9E3E7C0100008B81900102DE9F84307468846524B1B6893F82E30012B3DD901
:402280004F4B1B681C6AB3F8AC201444D3F8B050254493F84C30002B73D04A4B1B78002B40D1474B1B6893F82E30052B2CD9444B19680A6AB1F8AC3003EB83031344D1F8CF
:4022C000B020D358002B74DB002000F0A1F93E4B984270D000233D4A12680121184600F09BF9B8B90026002000F092F9364B984212D0374B9E420FD80136F4E74FF4E9718D
:40230000344800F08DF9BBE74FF4E971314800F087F9CCE7304C1CE02D4B9E424DD84FF0010901E04FF0000900F07EF906462B4BD3F81C35002B0FDB274CB9F1000F05D00E
:402340000121002000F058F90028F9D1304600F05BF92046BDE8F883214A0121204600F067F908B11C4CE8E74046FFF7BDFE37B12B68002BFCDB00F043F90446DDE7194C22
:40238000DBE700F051F90646154A0121204600F04FF938B95FB12B68002BFCDB00F030F9044600E00C4C304600F02EF9D1E70D4CF9E7094CCDE7084CCBE7074CC9E700BF36
:4023C000C01000080B00001601018800A80F0008EF490200B81900100500520000002640980F000801005000F0B47C4B1A68116AB2F8AC30C3EBC303194455680B68002BA9
:40240000FCDA4FF0B0535B78B3B14FF0B0535B78DBB2212B10D0724BCB60704B1B681C6AB3F8AC20C2EBC2022244002454601C68D3F890301C4442E0CB6843F00103CB6087
:40244000136AB2F8AC40C4EBC4042344DC6814F0020FE2D0DE68B6B21768D2F880403C59240A240404F47F0CD2F884403F593F0A4CEA07643443DC601468D2F88020A35897
:4024800023F47F4343F41063A350544A13681E68D3F88440335923F47F4343F41063335113681A68D3F880401459D3F88430D358B3E730BF236803F00303022B0FD1494A99
:4024C000136943F0040313610128F2D120BF464B1B7803B120BF444B01221A70EAE70B68002BFCDA4FF0B0535B787BB34FF0B0535B78DBB2212B29D0D5F80C31002B6BD114
:402500003A490E683A4BD3F818453A4A106841F61E770F600621C3F818153E2111604422C3F81C25324BD3F81C35002BFADA4FF0AA33C5F80C312D4B1E60A3F58473C3F88F
:40254000184503F582731860012037E0234B19680A6AB1F8AC30C3EBC3031344DA6812F0020F37D00868D1F88010425822F47F42DB681B0C1B029BB213434350174B196878
:402580000D68D1F884402B5923F47F43086AB1F8AC20C2EBC2020244D268120E43EA02232B5101200D4B1A68136AB2F8AC20C2EBC2021344DA6822F00102DA60074B1B68DA
:4025C0001A6AB3F8AC30C3EBC303134400225A60F0BC70470020E5E70020EFE7C0100008B40F000800ED00E0D40F00080801264000002640040126405FF800F07D13001062
:402600005FF800F0B90900105FF800F00B1600105FF800F0F91300105FF800F06D1000105FF800F0291500105FF800F0031600105FF800F0510E0010000000000000000017
:40264000000000000000000000000000000000000000000000000000000000000000000000000000000000000000000000000000000000000000000000000000000000005A
:40268000000000000000000000000000000000000000000000000000000000000000000000000000000000000000000000000000000000000000000000000000000000001A
:4026C00000000000000000000000000000000000000000000000000000000000000000000000000000000000000000000000000000000000000000000000000000000000DA
:402700000000000000000000000000000000000000000000000000000000000000000000000000000000000000000000000000000000000000000000000000000000000099
:402740000000000000000000000000000000000000000000000000000000000000000000000000000000000000000000000000000000000000000000000000000000000059
:402780000000000000000000000000000000000000000000000000000000000000000000000000000000000000000000000000000000000000000000000000000000000019
:4027C00000000000000000000000000000000000000000000000000000000000000000000000000000000000000000000000000000000000000000000000000000000000D9
:0200000490303A
:0200000015AE3B
:0200000490501A
:0C0000000000000000000000000C15AE25
:00000001FF