:020000041000EA
:4000000000F00308010900100D000000750900107509001075090010750900100000000000000000000000000000000071090010710900100000000071090010710900103E
:4000400071090010710900107109001071090010710900107109001071090010710900107109001071090010710900107109001071090010710900107109001071090010E0
:4000800071090010710900107109001071090010710900107109001071090010710900107109001071090010710900107109001071090010710900107109001071090010A0
:4000C0007109001071090010710900107109001071090010710900107109001071090010710900107109001071090010710900107109001071090010710900107109001060
:40010000710900107109001071090010710900107109001071090010710900107109001071090010710900107109001071090010710900107109001071090010710900101F
:4001400071090010710900107109001071090010710900107109001071090010710900107109001071090010710900107109001071090010710900107109001071090010DF
:40018000710900107109001071090010710900107109001071090010710900107109001071090010710900107109001071090010710900107109001071090010710900109F
:4001C000710900107109001071090010710900107109001071090010710900107109001071090010710900107109001071090010710900107109001071090010710900105F
:40020000710900107109001071090010710900107109001071090010710900107109001071090010710900107109001071090010710900107109001071090010710900101E
:4002400071090010710900107109001071090010710900107109001071090010710900107109001071090010710900107109001071090010710900107109001071090010DE
:40028000710900107109001071090010710900107109001071090010710900107109001071090010710900107109001071090010710900107109001071090010710900109E
:4002C000710900107109001071090010710900107109001071090010710900107109001010B5054C237833B9044B13B10448AFF300800123237010BD740E00080000000082
:400300008C1E001008B5034B1BB103490348AFF3008008BD00000000780E00088C1E0010704741F2A803C0F6000301221A60704770B5064640F69063C0F60003197093F85D
:400340003D30DB0917D0012240F69063C0F6000383F83C20344640F69865C0F600050FCD0FC40FCD0FC40FCD0FC495E80F0084E80F00304670BD144640F69063C0F600030E
:4003800093F83D2042F0800283F83D2041F2A803C0F600030020186040F22333C1F2000340F2E022C0F60002012100F051FF50B9002CCFD040F69063C0F6000393F83D3060
:4003C000DB09F7D1C6E70322BEE770B590B006460D46002240F22131C1F20001012000F098FF40F2E023C0F6000340F69064C0F600045C60DC60656094F83D3043F02003F6
:4004000084F83D3094F83D306FF3C71384F83D30012211466846FFF78BFFA36BB12B02D9A36BB52B06D940F69063C0F60003052283F83C20344640F69865C0F600050FCD57
:400440000FC40FCD0FC40FCD0FC495E80F0084E80F00304610B070BD10B504460A462021FFF766FF204610BD10B5044640F69063C0F60003996401220321FFF759FF2046CA
:4004800010BD38B5054640F69064C0F60004A164E2641A463021FFF74BFF284638BDF0B591B000F0A1F862B64FF4C063C4F2320310229A6041F21017C0F6000740F2343102
:4004C000C0F600016846FFF780FF3D466C460FCC0FC50FCC0FC50FCC0FC594E80F0085E80F0041F2AC01C0F600016846FFF7BCFF01216846FFF7B0FF3E466C460FCC0FC688
:400500000FCC0FC60FCC0FC694E80F0085E80F0097F8223013F0200F09D14FF4C063C4F232031022DA60642001F034F9F5E74FF4C063C4F2320310225A604FF47A7001F0D1
:4005400029F909E04FF4C063C4F2320310225A6042F2107001F01EF94FF4C063C4F2320310229A6041F2D001C0F6000148230B7045234B704C238B70CB704F220A71202065
:40058000487157208871CA7152220A724B7244238B7241F21016C0F6000601230B226846FFF76FFF35466C460FCC0FC50FCC0FC50FCC0FC594E80F0085E80F004FF47A70E0
:4005C00001F0E8F896F83430012BBBD10024092CB8DC4FF4C063C4F232031022DA60642001F0D8F80134F2E708B500F042F800F003F800F028F808BD41F29012C0F600024F
:40060000136899684FF08040C1F800049868B3F87010435823F47F4343F4A0634350126892F86F1003238B4092F86C1092F86E0081400B43916843F00043C1F8003493683E
:40064000D3F80034704710B54FF4C064C4F2320441F60032C1F200020421204600F09AFA41F63432C1F200020521204600F092FA10BD704708B5012000F0EEFE08BD70476B
:4006800030B40023C4F22603D3F8802302F00F0202F1D00153F8213003F00703042B1FD8DFE803F0031E1E080E004FF49053C0F27A0319E040F25833C0F600031B6813E017
:4006C0000023C4F2260302F1C00153F8213003F01F03112B23D0132B24D14FF4004303E04FF45853C0F26E13DABBC4F22602D2F8900500F00100D2F88815C1F30171D2F88D
:40070000882512F0405F10D00022C4F22602D2F88825C2F30172012A08D0002206E04FF40043E1E74FF4FA43DEE7012202B108B9032919D10022C4F22602D2F88015C1F38E
:400740001101D2F88405C0F30C00D2F88025C2F300620132B3FBF0F301FB03F3B3FBF2F302E0013A012A51D90022C4F22602D2F88023C2F30112D34040F25C32C0F6000254
:4007800013600022C4F22102D2F89010C1F3072101311269120E0132B3FBF2F240F26030C0F600000260B3FBF1F340F25432C0F60002136040F26832C0F60002136003F5B5
:4007C000742202F23F224DF68361C4F21B31A1FB0212C2F3874240F27031C0F600010A7003F2E73344F6D352C1F26202A2FB03239B0940F26C32C0F600021360DB0340F2BC
:400800006432C0F60002136030BC70470021C4F2260102F5C87051F8204004F0010402F5C07551F82500C0F3017051F8251011F0405F0AD00021C4F2260151F82510C1F39F
:400840000171012902D0002100E0012101B10CB9032889D10020C4F2260002F5C07250F8221001F07F0150F82240C4F3042450F82220C2F3044201FB03F3B3FBF4F3B3FB98
:40088000F2F371E708B541F69C30C1F2000000F07FF8FFF7F4FEFFF7F3FE00221146032000F067FE40F6E860C0F6000000F0D2FB41F29013C0F600031B6893F84D3013B98A
:4008C00000F060F908BD41F66830C1F2000000F054FCF5E708B500F0E8FF4FF46D43CEF20003D3F8882042F47002C3F88820BFF34F8FBFF36F8F00F0DCFF08BD7047704746
:40090000FFF7FCFF72B6144C144DAC4209DA21686268A368043BA2BFC858D050FAE70C34F3E70F490F4A00209142BCBF41F8040BFAE70D480D490860BFF34F8FFFF7CAFF29
:40094000FFF7A0FFFFF7DBFF00F0CCFFFFF7A7FD00F0B2FFFEE70000901E0010A81E0010740E0008B81100080000000808ED00E0FEE7FEE700B504207146084202D0EFF313
:40098000098001E0EFF30880043000F02EFFFEE741F29013C0F6000318607047B0F1204F52D020D8802851D00BD9B0F5807F5DD00623C0F2520398420DD0FF20C0F25200BD
:4009C0007047102846D0402803D10220C0F250007047002842D170474FF4A4007047FF20C0F2520070470923CAF20003984241D00923CAF2000398423FD30523CFF20003D8
:400A000098423ED8B0F1704F12D900F1805001380428E4D801A353F820F000BFD9090010DF090010650A0010390A0010410A0010FF20C0F2520070470220C0F2520070470D
:400A40000320C0F252007047002070470520C0F2520070470120C0F250007047FF20C0F2520070470120C0F2520070470620C0F2520070474FF4A0007047FF20C0F25200B3
:400A80007047FF20C0F25200A5E700BF38B541F29013C0F600031B6893F82E30012B1DD941F29013C0F600031D682B6AB5F8AC2013442C46D5F8B020D358002B17DB41F204
:400AC0006803C0F600031868FFF768FF6B6801229A6063689B68002BFBD138BD4FF4E97141F65040C1F2000000F06FFED8E70220C0F25000F1E741F27803C0F6000318603D
:400B000028B102230370FF2343700023438041F29013C0F600031B6893F84C2002B9704700B583B0B3F93630ADF800300023019340F62F01C0F60001684600F0ECFDBDF92E
:400B40000030002B0ADB03F01F015B0901228A404FF46141CEF2000141F8232041F29013C0F600031B6893F84D3013B903B05DF804FB022240F6F901C0F60001012000F0A6
:400B8000C8FBF3E708B540F6D050C0F60000FFF7B2FF08BD002800F0FB81F8B50D4614460646002A00F0F881072900F204812368012B00F20881636833F00F0340F00B8101
:400BC000237A33F01F0340F00E81E368032B00F212812369012B00F216816369012B00F21A81A369012B00F21E81E369032B00F22281236A012B00F22681636A012B00F27B
:400C00002A81A36A012B00F22E81E36A032B00F23281236B072B00F236812768072D00F23A81012F00F24081002F40F046810123AB4073606768072D00F2438137F00F0359
:400C400040F04881A80041F29012C0F60002136893F879108B590F22824023EA020207F00F03834013438B51277A072D00F23B8137F01F0340F0408141F29013C0F6000385
:400C80001A689369F31ADB095269190102EB0313032D00F23A8153584FEAC50C1F2000FA0CF023EA000307F01F0707FA0CF71F435750E768082D00F23581032F00F23B81E0
:400CC000680041F29012C0F60002136893F878108B590322824023EA020207F00303834013438B512769082D00F22E81012F00F23481B3690122AA4023EA020307F001072C
:400D0000AF401F43B7616769072D00F22F81012F00F2358141F29010C0F60000036893F87AC05CF806300121A94023EA010307F00102AA401A434CF806206A0002F1100C49
:400D4000032303FA0CF31943036893F87B70BB5923EA0101A36903F00103AB400B43E26902F0030202FA0CF21343BB51036893F87C20B15821F0FF01236A03F00103606A1D
:400D8000400000F002000343A06A800000F004000343E06AC00000F018000343206B4001C0B20343AD0005F47E7503FA05F50D43B5500020F8BD4F2141F6B040C1F2000017
:400DC00000F003FDF3E6502141F6B040C1F2000000F0FBFCEFE6512141F6B040C1F2000000F0F3FCECE6522141F6B040C1F2000000F0EBFCE9E6532141F6B040C1F20000E5
:400E000000F0E3FCE5E6542141F6B040C1F2000000F0DBFCE1E6552141F6B040C1F2000000F0D3FCDDE6562141F6B040C1F2000000F0CBFCD9E6572141F6B040C1F2000050
:400E400000F0C3FCD5E6582141F6B040C1F2000000F0BBFCD1E6592141F6B040C1F2000000F0B3FCCDE65A2141F6B040C1F2000000F0ABFCC9E65B2141F6B040C1F20000C0
:400E800000F0A3FCC5E65C2141F6B040C1F2000000F09BFCC1E640F2313141F60C50C1F2000000F092FCBCE640F2323141F60C50C1F2000000F089FCB6E60123AB40B3606B
:400EC000B8E640F2CE3141F60C50C1F2000000F07CFCB3E640F2CF3141F60C50C1F2000000F073FCAEE640F2922141F60C50C1F2000000F06AFCBBE640F2932141F60C50D6
:400F0000C1F2000000F061FCB6E62A1F5968D2001F20904021EA000107F01F0797400F435F60C6E640F2F26141F60C50C1F2000000F04BFCC1E640F2F36141F60C50C1F2F8
:400F4000000000F042FCBBE640F2736141F60C50C1F2000000F039FCC8E640F2746141F60C50C1F2000000F030FCC2E640F20D4141F60C50C1F2000000F027FCC7E640F2BA
:400F80000E4141F60C50C1F2000000F01EFCC1E60120C0F25A0070470120C0F25A0009E738B541F29013C0F600031B68D3F8B0301B58002B11DA05460C460B0C1B041BB910
:400FC000A4B26C60002038BD4FF4397141F65040C1F2000000F0F9FBF2E70120C0F28A00F1E738B50368002B12DA05460C46C2600B0C1B041BB9A4B2AC60002038BD40F280
:40100000CA2141F65040C1F2000000F0DEFBF2E70120C0F28A00F1E738B504460D4669B141F29013C0F600031B68D3F8B0301B59002B0BDAE3682B60002038BDA32141F6A9
:401040006850C1F2000000F0C0FBE9E70120C0F28A00F2E741F27C03C0F600031B6803B1704741F27C03C0F600031860F8E72DE9F84304460F4690461D46DDF8209041F258
:401080007C03C0F600031B68002B4AD041F27C03C0F600031A682C2303FB04F01418EEB21650C5F3072363602D0CA56041F29013C0F600031B6893F82E309E4239D241F2D4
:4010C0009013C0F600031A68136AB2F8AC1001FB06332361666892F82F309E4232D241F29013C0F600031B681D6A803605EB46156561A668330C1B046BBB330C1B049BBB35
:40110000B3B243EA0646AE60C4F81C8027620023A361B9F1000F02D0B9F90030A381BDE8F883BF2141F6C850C1F2000000F04DFBACE74FF4E97141F65040C1F2000000F056
:4011400044FBBCE74FF4F77141F65040C1F2000000F03BFBC3E740F20D2141F65040C1F2000000F032FBC8E740F20E2141F65040C1F2000000F029FBC2E7F0B58FB004462C
:40118000002845D0A369072B4AD8E36A002B4FD0236B002B54D007AD04F114060FCE0FC537682F6002AD26460FCE0FC533682B6041F29013C0F600031B689B8E079A134457
:4011C000ADF83030089B0D930CAD00953B46A26AE16A0A98FFF74BFF00210091069B0A460598FFF744FF216B284600F094FABDF93030002B0ADB03F01F015B0901228A4024
:401200004FF46141CEF2000141F823200FB0F0BD5C2141F6C850C1F2000000F0D6FAB1E7602141F6C850C1F2000000F0CEFAACE7622141F6C850C1F2000000F0C6FAA7E7B8
:40124000632141F6C850C1F2000000F0BEFAA2E7F8B504460F461D461646002A2FD041F27C03C0F600031B68002B31D041F27C02C0F6000211682C2202FB041002FB071113
:401280004A68012303FA02F21204476803FA07F703697BB38C6994BB1B68002B34DA33881A4332600369DE6001238B614D6205693B0C1B04ABB9BFB2AF602046F8BD40F2F5
:4012C000071141F6C850C1F2000000F07EFAC6E74FF4847141F6C850C1F2000000F075FAC4E740F2CA2141F65040C1F2000000F06CFAE0E74FF40174C0F28A04DDE740F2D9
:401300000724C0F28A04D8E740F20724C0F28A04D3E770B504460E46154641F27C03C0F600031B688BB141F27C03C0F6000318682C2303FB0404236A83B1E369AB4216D9BB
:40134000236A43F82560002070BD4FF4B47141F6C850C1F2000000F038FAE4E74FF4B67141F6C850C1F2000000F02FFAE5E740F20A20C0F28A00E7E770B582B000230193B7
:40138000044680B12369BBB16369F3B1236A2BB36369DD682A0C2AD1ADB2002D4CD163691B6802B070BD40F2DB1141F6C850C1F2000000F00AFAE5E74FF4EE7141F6C850F5
:4013C000C1F2000000F001FADEE740F2DD1141F6C850C1F2000000F0F8F9D7E74FF4EF7141F6C850C1F2000000F0EFF9D0E712041A601B68206941F29013C0F600031B68E7
:40140000D3F8B0301B58002BC6DA01A9FFF704FE60B9019803681E0CDBB2E2699A4206D9226A52F8233013B1984700E0002631462069FFF7B5FDAFE763691D601B68636A9E
:401440002BB19847002363620023A361A7E7A36A002BF9D09847F7E710B5044641F27C03C0F600031B6853B141F27C03C0F600031B682C2000FB0430FFF77EFF10BD40F27A
:40148000BB1141F6C850C1F2000000F09EF9EBE741F29013C0F600031B6893F82E3083425DD970B504460D4600295DD00B6813F01F0F04D040F20310C0F28A0070BD41F29E
:4014C0009013C0F600031B6893F82E30984225D241F29013C0F600031B68186AB3F8AC3003FB040441F28006C0F6000634602A68D2080021686800F019FA00212046FFF74C
:401500004FFD34689DB12A4600212046FFF769FDB0B140F20110C0F28A00CFE74FF4E97141F65040C1F2000000F04FF9D0E740F2A23141F65040C1F2000000F046F9E2E70F
:4015400041F28003C0F6000300211868FFF728FD0028B3D040F20110C0F28A00AEE740F20310C0F28A00704740F20310C0F28A00A4E738B505460C46134632B1A3B34CBB1A
:4015800040F20310C0F28A0038BD0029F6D141F29013C0F600031B6893F82E30984210D241F29013C0F600031B681A6AB3F8AC0000FB052041F28003C0F6000318602046B4
:4015C000E2E74FF4E97141F65040C1F2000000F0FCF8E5E740F6D451C0F600010C604B602846FFF755FFCFE740F20310C0F28A00CAE72DE9F04141F28003C0F600031B6859
:40160000DD682B68834234D90C46460900F01F00012303FA00F8D1B1002741F28003C0F6000318680368002B1ADA6A6852F8263013EA080F0FD023EA080342F826300025E3
:401640000021FFF7ADFC84B12846BDE8F08100F02CF90746E1E74FF48175C0F28805EFE740F20315C0F28805EDE7384600F021F9EAE74FF48275C0F28A05E5E741F28003C6
:40168000C0F600031B68DB681A6882420FD9410900F01F00012202FA00F05B6853F82130034209D040F20110C0F2880070474FF48270C0F28A0070474FF48070C0F28800CF
:4016C000704738B504464FF46D43CEF200039A6840F20003C0F600039A4207D0103440F20003C1F2000353F8240038BD0D4649B1103440F20003C0F6000353F8240043F8E7
:401700002450F2E740F2411141F62860C1F2000000F05BF8ECE7C8B338B50D4604464368072B19D8B4F900306268002B1CDB5201D2B203F1604303F5614383F800234FF4C9
:401740006D43CEF200039A6840F20003C0F600039A4214D0002038BD3C2141F62860C1F2000000F032F8DDE703F00F035201D2B24EF6FC41CEF2000119440A76DFE7294654
:40178000B4F90000FFF79DFF0020E4E70120C0F25600704710B50446B4F5004F09D940F26433C0F60003186800F076F8A4F50044F2E740F26C33C0F60003186800FB04F027
:4017C00000F06AF810BD01BEFEE738B50D4640F6E054C0F6000418220146204600F0F6F8A5610020FFF7EFFFFEE708B5026840F6E053C0F60003DA6142681A6282685A62BE
:40180000C2689A620269DA6242691A6382695A63C2699A634FF46D42CEF20002916AD963D16A1964516A5964516B9964926BDA64F1EE103A13F0900F2AD0026A40F6E0533A
:40184000C0F600031A65426A5A65826A9A65C26ADA65026B1A66426B5A66826B9A66C26BDA66026C1A67426C5A67826C9A67C26CDA67026DC3F88020426DC3F88420826D38
:40188000C3F88820C26DC3F88C20026EC3F89020FFF7AAFF08BD00000230800803D001300238FCD100BF00BF7047EFF3108072B6704780F31088704738B5084B084D5B1BD8
:4018C0009C1007D0043B1D44013C55F804399847002CF9D1BDE8384000F00CB9B0070008AC07000870B50D4E0D4D761BB61006D0002455F8043B01349847A642F9D1094E09
:40190000094D761B00F0F0F8B61006D0002455F8043B01349847A642F9D170BDA4070008A4070008AC070008A4070008F0B4860746D0541E002A3CD0CAB2034601E0013C03
:4019400037D303F8012B9D07F9D1032C2AD9CDB245EA05250F2C45EA054534D9A4F1100222F00F0C03F120071609674403F1100242E9045542E902551032BA42F8D1721CA3
:4019800014F00C0F03EB021204F00F0613D0331F23F003030433134442F8045B9342FBD106F003042CB1CAB21C4403F8012B9C42FBD1F0BC704734461346002CF3D1F8E75B
:4019C00014460346C1E71A462646E0E770B440EA0104A30701D1032A0FD804464D1E07E015F8011F03F8011B561EC9B11C4632462346002AF4D170BC70470B460446194649
:401A000053F8046BA6F1013525EA060515F0803FE4D1043A032A44F8046B1946EFD8DDE72244002EE7D003F8011B9342FBD170BC704700BF024B13B1024800F005B8704728
:401A400000000000B9180010002301461A46184600F004B8704700BF704700BF2DE9F047DFF880A00646DAF8000098460F469146FFF7F0FF1A4B1B68D3F8484124B3656894
:401A80001F2D26DC5EB9AB1C0135DAF80000656044F82370FFF7E0FF0020BDE8F08704EB85030121C3F88890D4F88821A9400A43022EC4F88821C3F80881E4D1D4F88C311F
:401AC0001943C4F88C11DEE703F5A674C3F84841D5E7DAF80000FFF7BFFF4FF0FF30DCE7881E0010A0070008F8B500BFF8BC08BC9E467047F8B500BFF8BC08BC9E46704740
:401B00000000000006000000000000000000000000000000000000000100000001000000000000000000000000000000000000000000000000000000060000000000000097
:401B400000000000000000000000000001000000010000000000000000000000000000000000000000000000030000000100000001000000000000000503600004000000F2
:401B8000010000000000000001000000060460000800000048100008750600100000214000002540000001400000344000002440000031400000324000001F410000234041
:401BC0000000114010101010101010101010800019005500F0000501053B04101C0101000FC000000004000001010101011D3A57789600082000101208000000001F000099
:401C00000010000F002000023F06080E00080009000A000B24282C3034000000100000009000000088000000080000008000000004F0000000F00000400200002005A0006B
:401C4000D00100018001A00120000000100000002F566F6C756D65732F446174612F5653636F64652F4749542F5653436F64655F4F6E657468696E785061636B5F6D6163E9
:401C80004F532F50444C5F312E332E312E313439392F647269766572732F696E636C7564652F63795F6970635F6472762E6800002F566F6C756D65732F446174612F56535B
:401CC000636F64652F4749542F5653436F64655F4F6E657468696E785061636B5F6D61634F532F50444C5F312E332E312E313439392F647269766572732F736F7572636534
:401D00002F63795F6770696F2E6300002F566F6C756D65732F446174612F5653636F64652F4749542F5653436F64655F4F6E657468696E785061636B5F6D61634F532F5081
:401D4000444C5F312E332E312E313439392F647269766572732F696E636C7564652F63795F6770696F2E68002F566F6C756D65732F446174612F5653636F64652F47495445
:401D80002F5653436F64655F4F6E657468696E785061636B5F6D61634F532F50444C5F312E332E312E313439392F647269766572732F736F757263652F63795F6970635F1C
:401DC0006472762E630000002F566F6C756D65732F446174612F5653636F64652F4749542F5653436F64655F4F6E657468696E785061636B5F6D61634F532F50444C5F316E
:401E00002E332E312E313439392F647269766572732F736F757263652F63795F6970635F706970652E6300002F566F6C756D65732F446174612F5653636F64652F47495462
:401E40002F5653436F64655F4F6E657468696E785061636B5F6D61634F532F50444C5F312E332E312E313439392F647269766572732F736F757263652F63795F737973692E
:401E80006E742E630000000078030008000000000000001000000008E0020000B01E0010E0020008F00A0000740E00084403000001006000900E000800006000900E000892
:401EC0000280000000000000000000000000000000000000000000000000000000000000000000000000000000000000000000000000000000000000000000000000000060
:401F00000000000000000001F0020008F1006400000000000000000000000000000000000000000000127A0000127A0000127A0000093D000000A00F00127A00401F0000CD
:401F400008000000000000000000000064060008CC0600083407000800000000000000000000000000000000000000000000000000000000000000000000000000000000CA
:401F80000000000000000000000000000000000000000000000000000000000000000000000000000000000000000000000000000000000000000000000000000000000021
:401FC00000000000000000000000000000000000000000000000000000000000000000000000000000000000000000000000000001000000000000000E33CDAB34126DE68E
:40200000ECDE05000B0000000000000000000000000000000000000000000000000000000000000000000000000000000000000000000000000000000000000000000000C6
:402040000000000000000000000000000000000000000000000000000000000000000000000000000000000000000000000000000000000000000000000000000000000060
:402080000000000000000000000000000000000000000000000000000000000000000000000000000000000000000000000000000000000000000000000000000000000020
:4020C00000000000000000000000000000000000000000000000000000000000000000000000000000000000000000000000000000000000000000000000000000000000E0
:40210000000000000000000000000000000000000000000000000000000000000000000000000000000000000000000000000000000000000000000000000000000000009F
:40214000000000000000000000000000000000000000000000000000000000000000000000000000000000000000000000000000000000000000000000000000000000005F
:40218000000000000000000000000000000000000000000000000000000000000000000000000000000000000000000000000000000000000000000000000000000000001F
:4021C00000000000000000000000000000000000000000000000000000000000000000000000000000000000000000000000000000000000000000000000000000000000DF
:40220000000000000000000000000000000000000000000000000000000000000000000000000000000000000000000000000000000000000000000000000000000000009E
:40224000000000000000000000000000000000000000000000000000000000000000000000000000000000000000000000000000000000000000000000000000000000005E
:40228000000000000000000000000000000000000000000000000000000000000000000000000000000000000000000000000000000000000000000000000000000000001E
:4022C00000000000000000000000000000000000000000000000000000000000000000000000000000000000000000000000000000000000000000000000000000000000DE
:40230000000000000000000000000000000000000000000000000000000000000000000000000000000000000000000000000000000000000000000000000000000000009D
:4023400000000000000000000000000000000000000000000000000000000000000000000000000000000000000000000000000094110008351A001005030010E102001046
:4023800080B2C100002839D041F29013C0F600031B681A6AB3F8AC30C3EBC303D358002BF2DA4FF48273C4F226033E221A604FF48473C4F2260341F61E721A600023C4F222
:4023C00026030622C3F8182521F07F41C3F81C15D3F81C3541F29013C0F600031B681A6AB3F8AC30C3EBC303134400225A600023C4F22603D3F81C35002BF8DA7047F8B578
:4024000041F29013C0F600031B6893F82E30052B42D941F29016C0F600063268176AB2F8AC3003EB83031F4452684FF26003D458A4B200F0A9FA054633681968D3F88C20F8
:402440008A58013C032C23D8032A2ED01868D3F880104258120E4058C0F30720531C00FB033344F24020C0F20F0000FB03F340F25C32C0F60002106844F6D352C1F2620293
:40248000A2FB00208009B3FBF0F08230FFF778FF284600F065FAF8BD4FF4E97141F65040C1F2000000F06CFAB3E70B22C1F200621278002ACAD10822BA601968D3F88C20E3
:4024C0008A58032AF9D0C1E74378FF2B00D0704710B500F059FA044641F29013C0F600031B6893F82E30032B18D941F29013C0F600031B681A6AB3F8AC3003EB43031344DC
:40250000DB685A68136843F001031360136813F0010FFBD1204600F023FA10BD4FF4E97141F65040C1F2000000F02AFADDE72DE9F84306460F4641F29013C0F600031B68E4
:4025400093F82E30012B58D941F29013C0F600031B681C6AB3F8AC201444D3F8B050254493F84C30002B00F0A1800B23C1F200631B78002B60D141F29013C0F600031B68F2
:4025800093F82E30052B41D941F29013C0F6000319680A6AB1F8AC3003EB83031344D1F8B020D358002BC0F2A080002000F0E0F940F20113C0F28803984200F09A8041F2D0
:4025C0007802C0F60002002312680121184600F0DFF9804618BB002000F0CAF940F20113C0F2880398421ED044F6EF13C0F20203984518D808F10108EDE74FF4E97141F6A3
:402600005040C1F2000000F0BBF99DE74FF4E97141F65040C1F2000000F0B2F9B4E70524C0F2520423E044F6EF13C0F20203984563D84FF0010901E04FF0000900F0A4F9A4
:4026400080460023C4F22603D3F81C35002B11DB0524C0F25204B9F1000F05D00121002000F09AF90028F9D1404600F079F92046BDE8F88341F26802C0F60002012120469E
:4026800000F072F918B10524C0F25204E3E73846FFF776FE36B12B68002BFCDB00F06CF90446D8E70124C0F25004D4E700F06CF9074641F26802C0F600020121204600F0E4
:4026C00053F938B96EB12B68002BFCDB00F054F9044602E00524C0F25204384600F040F9C5E70124C0F25004F7E70524C0F25204BDE70524C0F25204B9E70524C0F252041C
:40270000B5E7F0B441F29013C0F600031A68116AB2F8AC30C3EBC303194455680B68002BFCDA4FF0B0535B78E3B14FF0B0535B78DBB2212B16D041F28403C0F60003CB602A
:4027400041F29013C0F600031B681C6AB3F8AC20C2EBC2022244002454601C68D3F890301C4445E0CB6843F00103CB60136AB2F8AC40C4EBC4042344DC6814F0020FDFD079
:40278000DE68B6B21768D2F880403C59240A240404F47F0CD2F884403F593F0A4CEA07643443DC601468D2F88020A35823F47F4343F41063A35041F29012C0F600021368D2
:4027C0001E68D3F88440335923F47F4343F41063335113681A68D3F880401459D3F88430D358ADE730BF236803F00303022B18D14FF46D43CEF200031A6942F004021A6189
:402800000128EFD120BF41F2A403C0F600031B7803B120BF41F2A403C0F6000301221A70E1E70B68002BFCDA4FF0B0535B78002B3FD04FF0B0535B78DBB2212B39D0D5F888
:402840000C31002B40F087804FF48471C4F226010E68C4F22603D3F818454FF48272C4F22602106841F61E770F600621C3F818153E2111604422C3F81C250023C4F226031C
:40288000D3F81C35002BF8DA4FF0AA33C5F80C314FF48473C4F226031E600023C4F22603C3F818454FF48273C4F226031860012040E041F29013C0F6000319680A6AB1F83B
:4028C000AC30C3EBC3031344DA6812F0020F40D00868D1F88010425822F47F42DB681B0C1B029BB21343435041F29013C0F6000319680D68D1F884402B5923F47F43086AF4
:40290000B1F8AC20C2EBC2020244D268120E43EA02232B51012041F29013C0F600031A68136AB2F8AC20C2EBC2021344DA6822F00102DA6041F29013C0F600031B681A6A2F
:40294000B3F8AC30C3EBC303134400225A60F0BC70470020DFE70020ECE70000000000005FF800F0B31800105FF800F0E30F00105FF800F07D1600105FF800F08D0A0010AA
:402980005FF800F0CB1700105FF800F0AB1800105FF800F0511200105FF800F0F31500100000000000000000000000000000000000000000000000000000000000000000AB
:4029C00000000000000000000000000000000000000000000000000000000000000000000000000000000000000000000000000000000000000000000000000000000000D7
:0200000490303A
:020000007AA8DC
:0200000490501A
:0C0000000000000000000000000E7AA8C4
:00000001FF