:020000041000EA
:4000000000F00308690800100D000000DD080010DD080010DD080010DD08001000000000000000000000000000000000D9080010D908001000000000D9080010D90800109F
:40004000D9080010D9080010D9080010D9080010D9080010D9080010D9080010D9080010D9080010D9080010D9080010D9080010D9080010D9080010D9080010D908001070
:40008000D9080010D9080010D9080010D9080010D9080010D9080010D9080010D9080010D9080010D9080010D9080010D9080010D9080010D9080010D9080010D908001030
:4000C000D9080010D9080010D9080010D9080010D9080010D9080010D9080010D9080010D9080010D9080010D9080010D9080010D9080010D9080010D9080010D9080010F0
:40010000D9080010D9080010D9080010D9080010D9080010D9080010D9080010D9080010D9080010D9080010D9080010D9080010D9080010D9080010D9080010D9080010AF
:40014000D9080010D9080010D9080010D9080010D9080010D9080010D9080010D9080010D9080010D9080010D9080010D9080010D9080010D9080010D9080010D90800106F
:40018000D9080010D9080010D9080010D9080010D9080010D9080010D9080010D9080010D9080010D9080010D9080010D9080010D9080010D9080010D9080010D90800102F
:4001C000D9080010D9080010D9080010D9080010D9080010D9080010D9080010D9080010D9080010D9080010D9080010D9080010D9080010D9080010D9080010D9080010EF
:40020000D9080010D9080010D9080010D9080010D9080010D9080010D9080010D9080010D9080010D9080010D9080010D9080010D9080010D9080010D9080010D9080010AE
:40024000D9080010D9080010D9080010D9080010D9080010D9080010D9080010D9080010D9080010D9080010D9080010D9080010D9080010D9080010D9080010D90800106E
:40028000D9080010D9080010D9080010D9080010D9080010D9080010D9080010D9080010D9080010D9080010D9080010D9080010D9080010D9080010D9080010D90800102E
:4002C000D9080010D9080010D9080010D9080010D9080010D9080010D9080010D908001010B5054C237833B9044B13B10448AFF300800123237010BDA40D0008000000001B
:40030000681C001008B5034B1BB103490348AFF3008008BD00000000A80D0008681C001070470000014B01221A607047D80F000870B50646194B197093F83D30DB0911D022
:400340000122164B83F83C203446154D0FCD0FC40FCD0FC40FCD0FC495E80F0084E80F00304670BD14460D4A92F83D3043F0800382F83D3000200B4B18600B4B0B4A01218F
:4003800000F080FE38B9002CDED0044B93F83D30DB09FAD1D8E70322D3E700BFC00D0008C80D0008D80F000825030010E002000870B590B006460D4600221949012000F055
:4003C000B1FE184B184C5C60DC60656094F83D3043F0200384F83D3094F83D306FF3C71384F83D30012211466846FFF7A1FFA36BB12B02D9A36BB52B03D90B4B052283F82F
:400400003C203446094D0FCD0FC40FCD0FC40FCD0FC495E80F0084E80F00304610B070BD21030010E0020008C00D0008C80D000810B504460A462021FFF77AFF204610BD07
:4004400010B50446034B996401220321FFF770FF204610BDC00D000858B50446044EB164F2641A463021FFF763FF204658BD00BFC00D0008F0B591B000F08AF862B63F4B48
:4004800010229A603E4F3F496846FFF791FF3D466C460FCC0FC50FCC0FC50FCC0FC594E80F0085E80F0038496846FFF7C9FF01216846FFF7BDFF3E466C460FCC0FC60FCC4E
:4004C0000FC60FCC0FC694E80F0085E80F0097F8223013F0200F06D1284B1022DA60642001F012F8F8E7254B10225A604FF47A7001F00AF806E0214B10225A6042F21070DB
:4005000001F002F81D4B10229A60204948230B7045234B704C238B70CB704F220A712020487157208871CA7152220A724B7244238B72134E01230B226846FFF78DFF354627
:400540006C460FCC0FC50FCC0FC50FCC0FC594E80F0085E80F004FF47A7000F0D5FF96F83430012BC7D10024092CC4DC034B1022DA60642000F0C8FF0134F5E70006324097
:400580004010000834030008DC0F00080010000808B500F03FF800F003F800F027F808BD114A136899684FF08040C1F800049868B3F87010435823F47F4343F4A0634350F7
:4005C000126892F86F1003238B4092F86C1092F86E0081400B43916843F00043C1F800349368D3F800347047C010000810B5064C064A0421204600F065FA054A0521204679
:4006000000F060FA10BD00BF00063240681800109C180010704708B5012000F013FE08BD7047000030B4654BD3F8802302F00F0202F1D00153F8213003F00703042B17D886
:40064000DFE803F00316160508005D4B11E05D4B1B680EE002F1C003584951F8233003F01F03112B1DD0132B1ED14FF4004300E0554BB2BB514AD2F8900500F00100D2F84C
:400680008815C1F30171D2F8882512F0405F0ED04A4AD2F88825C2F30172012A08D0002206E04FF40043E4E74FF4FA43E1E7012202B108B9032917D1404AD2F88015C1F362
:4006C0001101D2F88405C0F30C00D2F88025C2F300620132B3FBF0F301FB03F3B3FBF2F302E0013A012A32D9344AD2F88023C2F30112D340354A1360354AD2F89010C1F35F
:40070000072101311269120E0132B3FBF2F231480260B3FBF1F3304A1360304A136003F5742202F23F222E49A1FB0212C2F387422C490A7003F2E7332B4AA2FB03239B0956
:400740002A4A1360DB032A4A136030BC70471B4902F5C87051F8204004F0010402F5C07551F82500C0F3017051F8251011F0405F09D02946114D55F82110C1F301710129A5
:4007800002D0002100E0012101B10CB90328ABD10A4C02F5C07254F8221001F07F0154F82200C0F3042054F82220C2F3044201FB03F3B3FBF0F3B3FBF2F395E700002640F2
:4007C00000127A005803000800366E015C0300080000214060030008540300086803000883DE1B4370030008D34D62106C0300086403000808B50D4800F07EF8FFF710FF31
:40080000FFF710FF00221146032000F08BFD084800F05EFB074B1B6893F84D3013B900F049F908BD044800F0CDFBF8E704190010180E0008C0100008D018001008B500F0AB
:40084000E8FE074AD2F8883043F47003C2F88830BFF34F8FBFF36F8F00F0DFFE08BD00BF00ED00E070477047FFF7FCFF72B6144C144DAC4209DA21686268A368043BA2BF2E
:40088000C858D050FAE70C34F3E70F490F4A00209142BCBF41F8040BFAE70D480D490860BFF34F8FFFF7CAFFFFF7A4FFFFF7DBFF00F0CCFEFFF7DEFD00F0B2FEFEE70000DA
:4008C0006C1C0010841C0010A40D0008E81000080000000808ED00E0FEE7FEE700B504207146084202D0EFF3098001E0EFF30880043000F033FEFEE7014B1860704700BF7A
:40090000C0100008B0F1204F3CD018D880283BD007D9B0F5807F3FD0244B984209D024487047102832D0402801D12248704700282ED170474FF4A40070471D4870471E4BB2
:4009400098422BD02DD31D4B98422CD8B0F1704F12D900F1805001380428EED801A353F820F000BF350900103B090010950900107D090010810900100D48704710487047CC
:4009800010487047002070470F4870470F487047074870470E487047044870474FF4A0007047034870470248C3E700BF06005200FF00520002005000090000A0050000F037
:4009C000020052000300520005005200010050000100520038B5134B1B6893F82E30012B17D9104B1D682B6AB5F8AC2013442C46D5F8B020D358002B11DB0B4B1868FFF71E
:400A000081FF6B6801229A6063689B68002BFBD138BD4FF4E971054800F090FDE1E70448F6E700BFC0100008980F0008B8190010020050001A4B186028B102230370FF234B
:400A4000437000234380174B1B6893F84C2002B9704700B583B0B3F93630ADF80030002301931149684600F015FDBDF90030002B07DB03F01F015B0901228A400B4941F81B
:400A80002320084B1B6893F84D3013B903B05DF804FB02220649012000F044FBF6E700BFA80F0008C01000081D08000800E100E0D908000808B50248FFF7BCFF08BD00BF39
:400AC000000D0008002800F0A181F8B50D4614460646002A00F09C81072900F2F8802368012B00F2F980636833F00F0340F0F980237A33F01F0340F0F980E368032B00F26F
:400B0000FA802369012B00F2FB806369012B00F2FC80A369012B00F2FD80E369032B00F2FE80236A012B00F2FF80636A012B00F20081A36A012B00F20181E36A032B00F26F
:400B40000281236B072B00F203812768072D00F20481012F00F20781002F40F00A810123AB4073606768072D00F2078137F00F0340F00981A800A74B1B6893F879108B5987
:400B80000F22824023EA020307F00F0787401F438F51277A072D00F2FC8037F01F0340F0FE809C4B1A689369F31ADB095269190102EB0313032D00F2F88053584FEAC50C63
:400BC0001F2000FA0CF023EA000307F01F0707FA0CF71F435750E768082D00F2F380032F00F2F68068008B4B1B6893F878108B590322824023EA020207F00303834013433D
:400C00008B512769082D00F2E980012F00F2EC80B3690122AA4023EA020307F00107AF401F43B7616769072D00F2E480012F00F2E7807848036893F87AC05CF80630012108
:400C4000A94023EA010307F00102AA401A434CF806206A0002F1100C032303FA0CF31943036893F87B70BB5923EA0101A36903F00103AB400B43E26902F0030202FA0CF25C
:400C80001343BB51036893F87C20B15821F0FF01236A03F00103606A400000F002000343A06A800000F004000343E06AC00000F018000343206B4001C0B20343AD0005F41A
:400CC0007E7503FA05F50D43B5500020F8BD4F21514800F033FC02E750214F4800F02EFC01E751214C4800F029FC01E752214A4800F024FC01E75321474800F01FFC00E7D0
:400D00005421454800F01AFCFFE65521424800F015FCFEE65621404800F010FCFDE657213D4800F00BFCFCE658213B4800F006FCFBE65921384800F001FCFAE65A2136489E
:400D400000F0FCFBF9E65B21334800F0F7FBF8E65C21314800F0F2FBF7E640F231312F4800F0ECFBF5E640F232312C4800F0E6FBF2E60123AB40B360F4E640F2CE3127483B
:400D800000F0DCFBF2E640F2CF31244800F0D6FBF0E640F29221214800F0D0FBFDE640F293211E4800F0CAFBFBE62A1F5968D2001F20904021EA000107F01F0797400F4354
:400DC0005F6008E740F2F261144800F0B7FB06E740F2F361114800F0B1FB03E740F273610E4800F0ABFB10E740F274610B4800F0A5FB0DE740F20D41084800F09FFB15E753
:400E000040F20E41054800F099FB12E70448704703485BE7C01000082C1A00109C1A001001005A0038B50C4B1B68D3F8B0301B58002B0EDA05460C460B0C1B041BB9A4B293
:400E40006C60002038BD4FF43971044800F076FBF5E70348F6E700BFC0100008B819001001008A0038B50368002B0FDA05460C46C2600B0C1B041BB9A4B2AC60002038BD44
:400E800040F2CA21024800F059FBF5E70148F6E7B819001001008A0038B504460D4651B1084B1B68D3F8B0301B59002B08DAE3682B60002038BDA321034800F03FFBEFE791
:400EC0000248F7E7C01000080C1B001001008A00034B1B6803B17047014B1860FBE700BFAC0F00082DE9F84304460F4690461D46DDF820902F4B1B68002B3ED02D4B1A68EE
:400F00002C2303FB04F01418EEB21650C5F3072363602D0CA560284B1B6893F82E309E4230D2254B1A68136AB2F8AC1001FB06332361666892F82F309E4229D21E4B1B688E
:400F40001D6A803605EB46156561A668330C1B0423BB330C1B043BBBB3B243EA0646AE60C4F81C8027620023A361B9F1000F02D0B9F90030A381BDE8F883BF210F4800F0B9
:400F8000DDFABBE74FF4E9710D4800F0D7FAC8E74FF4F7710A4800F0D1FACFE740F20D21074800F0CBFAD4E740F20E21044800F0C5FAD1E7AC0F0008C0100008801B00106F
:400FC000B8190010F0B58FB0044600283FD0A369072B41D8E36A002B43D0236B002B45D007AD04F114060FCE0FC537682F6002AD26460FCE0FC533682B601F4B1B689B8E51
:40100000079A1344ADF83030089B0D930CAD00953B46A26AE16A0A98FFF764FF00210091069B0A460598FFF75DFF216B284600F031FABDF93030002B07DB03F01F015B090E
:4010400001228A400D4941F823200FB0F0BD5C210B4800F073FABAE76021094800F06EFAB8E76221064800F069FAB6E76321044800F064FAB4E700BFC010000800E100E0DC
:40108000801B0010F8B507460C461D4616463AB31F4B1B6853B31E4B19682C2202FB071002FB04114A68012404FA02F2120443689C40036933B38F6937BB1B68002B25DAED
:4010C00033881A4332600369DE6001238B614D620569230C1B047BB9A4B2AC603846F8BD40F207110B4800F029FAD1E74FF48471084800F023FACEE740F2CA21064800F04B
:401100001DFAE9E7054FE9E7054FE7E7044FE5E7AC0F0008801B0010B819001004028A0007028A0070B504460E4615460F4B1B6873B10E4B18682C2303FB0404236A6BB1FB
:40114000E369AB4210D9236A43F82560002070BD4FF4B471064800F0F1F9EAE74FF4B671034800F0EBF9EBE70248F0E7AC0F0008801B00100A028A0070B582B000230193C4
:40118000044680B12369A3B16369C3B1236AE3B16369DD682A0C1ED1ADB2002D3DD163691B6802B070BD40F2DB11244800F0C6F9E8E74FF4EE71214800F0C0F9E4E740F2BC
:4011C000DD111E4800F0BAF9E0E74FF4EF711B4800F0B4F9DCE712041A601B682069184B1B68D3F8B0301B58002BD5DA01A9FFF753FE60B9019803681E0CDBB2E2699A4265
:4012000006D9226A52F8233013B1984700E0002631462069FFF706FEBEE763691D601B68636A2BB19847002363620023A361B6E7A36A002BF9D09847F7E700BF801B001036
:40124000C010000810B50446084B1B683BB1074B1B682C2000FB0430FFF78EFF10BD40F2BB11034800F06AF9F1E700BFAC0F0008801B0010264B1B6893F82E30834242D9C7
:4012800070B504460D4600293FD00B6813F01F0F01D0204870BD1E4B1B6893F82E3098421CD21B4B1B68186AB3F8AC3003FB0404194E34602A68D2080021686800F0EAF96A
:4012C00000212046FFF7AEFD34686DB12A4600212046FFF7C7FD68B11048DBE74FF4E9710F4800F02BF9DCE740F2A2310C4800F025F9EBE70021084B1868FFF793FD002882
:40130000C8D00648C6E7034870470248C2E700BFC010000803018A00B00F000801018A00B819001038B505460C4613461AB113B3D4B9124838BD0029F9D1114B1B6893F81F
:401340002E3098420AD20E4B1B681A6AB3F8AC0000FB05200B4B18602046EBE74FF4E971094800F0EBF8EEE708490C604B602846FFF780FFDEE70148DCE700BF03018A007D
:40138000C0100008B00F0008B8190010040D00082DE9F041194B1B68DD682B6883422BD90C46460900F01F00012303FA00F8B9B10027124B18680368002B17DA6A6852F8EB
:4013C000263013EA080F0FD023EA080342F8263000250021FFF726FD54B12846BDE8F08100F017F90746E4E7054DF2E7054DF3E7384600F012F9F0E7034DEEE7B00F000869
:40140000020188000301880004018A000B4B1B68DB681A6882420CD9410900F01F00012202FA00F05B6853F82130034203D004487047044870470448704700BFB00F000851
:401440000101880004018A000001880038B504460C4B9A680C4B9A4204D010340B4B53F8240038BD0D4631B11034074B53F8240043F82450F5E740F24111054800F05EF859
:40148000F2E700BF00ED00E00000000800000010F41B001060B338B50D4604464368072B13D8B4F900306268002B13DB5201D2B203F1604303F5614383F800230D4B9A6869
:4014C0000D4B9A420DD0002038BD3C210B4800F035F8E6E703F00F035201D2B20849CA54ECE72946B4F90000FFF7B0FF0020EBE70448704700ED00E000000008F41B001064
:4015000014ED00E00100560010B50446B4F5004F06D9074B186800F073F8A4F50044F5E7044B186800FB04F000F06AF810BD00BF640300086C03000801BEFEE738B50C4642
:40154000044D18220146284600F0F4F8AC610020FFF7F2FF100D0008FEE7000008B50268254BDA6142681A6282685A62C2689A620269DA6242691A6382695A63C2699A63CE
:401580001E4A916AD963D16A1964516A5964516B9964926BDA64F1EE103A13F0900F27D0026A154B1A65426A5A65826A9A65C26ADA65026B1A66426B5A66826B9A66C26B26
:4015C000DA66026C1A67426C5A67826C9A67C26CDA67026DC3F88020426DC3F88420826DC3F88820C26DC3F88C20026EC3F89020FFF7B2FF08BD00BF100D000800ED00E037
:401600000230800803D001300238FCD100BF00BF7047EFF3108072B6704780F31088704738B5084B084D5B1B9C1007D0043B1D44013C55F804399847002CF9D1BDE83840B6
:4016400000F00CB9B0070008AC07000870B50D4E0D4D761BB61006D0002455F8043B01349847A642F9D1094E094D761B00F0F0F8B61006D0002455F8043B01349847A64260
:40168000F9D170BDA4070008A4070008AC070008A4070008F0B4860746D0541E002A3CD0CAB2034601E0013C37D303F8012B9D07F9D1032C2AD9CDB245EA05250F2C45EA7A
:4016C000054534D9A4F1100222F00F0C03F120071609674403F1100242E9045542E902551032BA42F8D1721C14F00C0F03EB021204F00F0613D0331F23F003030433134433
:4017000042F8045B9342FBD106F003042CB1CAB21C4403F8012B9C42FBD1F0BC704734461346002CF3D1F8E714460346C1E71A462646E0E770B440EA0104A30701D1032A09
:401740000FD804464D1E07E015F8011F03F8011B561EC9B11C4632462346002AF4D170BC70470B460446194653F8046BA6F1013525EA060515F0803FE4D1043A032A44F8E4
:40178000046B1946EFD8DDE72244002EE7D003F8011B9342FBD170BC704700BF024B13B1024800F005B870470000000021160010002301461A46184600F004B8704700BFDB
:4017C000704700BF2DE9F047DFF880A00646DAF8000098460F469146FFF7F0FF1A4B1B68D3F8484124B365681F2D26DC5EB9AB1C0135DAF80000656044F82370FFF7E0FFA5
:401800000020BDE8F08704EB85030121C3F88890D4F88821A9400A43022EC4F88821C3F80881E4D1D4F88C311943C4F88C11DEE703F5A674C3F84841D5E7DAF80000FFF7EA
:40184000BFFF4FF0FF30DCE7641C0010A0070008F8B500BFF8BC08BC9E467047F8B500BFF8BC08BC9E46704700000000060000000000000000000000000000000000000036
:40188000010000000100000000000000000000000000000000000000000000000000000006000000000000000000000000000000000000000100000001000000000000001E
:4018C000000000000000000000000000000000000300000001000000010000000000000005036000040000000100000000000000010000000604600008000000780F000874
:40190000170600100000214000002540000001400000344000002440000031400000324000001F41000023400000114010101010101010101010800019005500F000050120
:40194000053B04101C0101000FC000000004000001010101011D3A57789600082000101208000000001F00000010000F002000023F06080E00080009000A000B24282C3086
:4019800034000000100000009000000088000000080000008000000004F0000000F00000400200002005A000D00100018001A00120000000100000002F6D656469612F7066
:4019C00073662F416C6C46696C65732F566F6C756D65732F446174612F5653636F64652F4749542F5653436F64655F4F6E657468696E785061636B5F4C696E75782F5044DA
:401A00004C5F312E332E312E313439392F647269766572732F696E636C7564652F63795F6970635F6472762E680000002F6D656469612F7073662F416C6C46696C65732FCC
:401A4000566F6C756D65732F446174612F5653636F64652F4749542F5653436F64655F4F6E657468696E785061636B5F4C696E75782F50444C5F312E332E312E31343939FB
:401A80002F647269766572732F736F757263652F63795F6770696F2E630000002F6D656469612F7073662F416C6C46696C65732F566F6C756D65732F446174612F565363AE
:401AC0006F64652F4749542F5653436F64655F4F6E657468696E785061636B5F4C696E75782F50444C5F312E332E312E313439392F647269766572732F696E636C75646509
:401B00002F63795F6770696F2E6800002F6D656469612F7073662F416C6C46696C65732F566F6C756D65732F446174612F5653636F64652F4749542F5653436F64655F4FCA
:401B40006E657468696E785061636B5F4C696E75782F50444C5F312E332E312E313439392F647269766572732F736F757263652F63795F6970635F6472762E630000000045
:401B80002F6D656469612F7073662F416C6C46696C65732F566F6C756D65732F446174612F5653636F64652F4749542F5653436F64655F4F6E657468696E785061636B5F1D
:401BC0004C696E75782F50444C5F312E332E312E313439392F647269766572732F736F757263652F63795F6970635F706970652E630000002F6D656469612F7073662F4128
:401C00006C6C46696C65732F566F6C756D65732F446174612F5653636F64652F4749542F5653436F64655F4F6E657468696E785061636B5F4C696E75782F50444C5F312ED6
:401C4000332E312E313439392F647269766572732F736F757263652F63795F737973696E742E630078030008000000000000001000000008E00200008C1C0010E00200081B
:401C8000200A0000A40D00084403000001006000C00D000800006000C00D00080280000000000000000000000000000000000000000000000000000000000000000000000D
:401CC000000000000000000000000000000000000000000000000000000000000000000000000001F0020008F1006400000000000000000000000000000000000000000094
:401D000000127A0000127A0000127A0000093D000000A00F00127A00401F000008000000000000000000000064060008CC0600083407000800000000000000000000000088
:401D40000000000000000000000000000000000000000000000000000000000000000000000000000000000000000000000000000000000000000000000000000000000063
:401D80000000000000000000000000000000000000000000000000000000000000000000000000000000000000000000000000000000000000000000000000000000000023
:401DC00000000000000000000000000001000000000000000E33CDAB34126DE6ECDE05000B00000000000000000000000000000000000000000000000000000000000000B6
:401E000000000000000000000000000000000000000000000000000000000000000000000000000000000000000000000000000000000000000000000000000000000000A2
:401E40000000000000000000000000000000000000000000000000000000000000000000000000000000000000000000000000000000000000000000000000000000000062
:401E80000000000000000000000000000000000000000000000000000000000000000000000000000000000000000000000000000000000000000000000000000000000022
:401EC00000000000000000000000000000000000000000000000000000000000000000000000000000000000000000000000000000000000000000000000000000000000E2
:401F000000000000000000000000000000000000000000000000000000000000000000000000000000000000000000000000000000000000000000000000000000000000A1
:401F40000000000000000000000000000000000000000000000000000000000000000000000000000000000000000000000000000000000000000000000000000000000061
:401F80000000000000000000000000000000000000000000000000000000000000000000000000000000000000000000000000000000000000000000000000000000000021
:401FC00000000000000000000000000000000000000000000000000000000000000000000000000000000000000000000000000000000000000000000000000000000000E1
:4020000000000000000000000000000000000000000000000000000000000000000000000000000000000000000000000000000000000000000000000000000000000000A0
:402040000000000000000000000000000000000000000000000000000000000000000000000000000000000000000000000000000000000000000000000000000000000060
:402080000000000000000000000000000000000000000000000000000000000000000000000000000000000000000000000000000000000000000000000000000000000020
:4020C00000000000000000000000000000000000000000000000000000000000000000000000000000000000000000000000000000000000000000000000000000000000E0
:40210000000000000000000000000000000000000000000000000000000000000000000000000000000000000000000000000000000000000000000000000000000000009F
:40214000000000000000000000000000C41000089D17001005030010E102001080B2C10050B3164B1B681A6AB3F8AC30C3EBC303D358002BF5DA124B3E221A60043341F691
:402180001E721A60A3F584730622C3F8182521F07F41C3F81C15D3F81C35084B1B681A6AB3F8AC30C3EBC303134400225A60054BD3F81C35002BFADA704700BFC01000084C
:4021C0000401264000002640F8B5284B1B6893F82E30052B36D9254F3A68166AB2F8AC3003EB83031E4452684FF26003D458A4B200F04CFA05463B681968D3F88C208A5873
:40220000013C032C1AD8032A22D01868D3F880104258120E4058C0F30720531C00FB0333134800FB03F3134A1068134AA2FB00208009B3FBF0F08230FFF790FF284600F093
:4022400015FAF8BD4FF4E9710C4800F01BFAC2E70B4A1278002AD8D10822B2601968D3F88C208A58032AF9D0CFE700BFC010000840420F005C030008D34D6210B819001085
:402280000B0000164378FF2B00D0704710B500F0FDF90446104B1B6893F82E30032B15D90D4B1B681A6AB3F8AC3003EB43031344DB685A68136843F001031360136813F0A0
:4022C000010FFBD1204600F0D1F910BD4FF4E971024800F0D7F9E3E7C0100008B81900102DE9F84307468846524B1B6893F82E30012B3DD94F4B1B681C6AB3F8AC201444C2
:40230000D3F8B050254493F84C30002B73D04A4B1B78002B40D1474B1B6893F82E30052B2CD9444B19680A6AB1F8AC3003EB83031344D1F8B020D358002B74DB002000F03B
:402340009DF93E4B984270D000233D4A12680121184600F09FF90646B0B9002000F08EF9364B984212D0374B9E420FD80136F4E74FF4E971344800F085F9BBE74FF4E9714E
:40238000314800F07FF9CCE7304C1CE02D4B9E424DD84FF0010901E04FF0000900F076F906462B4BD3F81C35002B0FDB274CB9F1000F05D00121002000F070F90028F9D142
:4023C000304600F053F92046BDE8F883214A0121204600F04FF908B11C4CE8E74046FFF7BDFE37B12B68002BFCDB00F05BF90446DDE7194CDBE700F049F90646154A01215E
:40240000204600F037F938B95FB12B68002BFCDB00F048F9044600E00C4C304600F026F9D1E70D4CF9E7094CCDE7084CCBE7074CC9E700BFC01000080B0000160101880003
:40244000A80F0008EF490200B81900100500520000002640980F000801005000F0B47C4B1A68116AB2F8AC30C3EBC303194455680B68002BFCDA4FF0B0535B78B3B14FF01D
:40248000B0535B78DBB2212B10D0724BCB60704B1B681C6AB3F8AC20C2EBC2022244002454601C68D3F890301C4442E0CB6843F00103CB60136AB2F8AC40C4EBC4042344A4
:4024C000DC6814F0020FE2D0DE68B6B21768D2F880403C59240A240404F47F0CD2F884403F593F0A4CEA07643443DC601468D2F88020A35823F47F4343F41063A350544AF4
:4025000013681E68D3F88440335923F47F4343F41063335113681A68D3F880401459D3F88430D358B3E730BF236803F00303022B0FD1494A136943F0040313610128F2D116
:4025400020BF464B1B7803B120BF444B01221A70EAE70B68002BFCDA4FF0B0535B787BB34FF0B0535B78DBB2212B29D0D5F80C31002B6BD13A490E683A4BD3F818453A4A7F
:40258000106841F61E770F600621C3F818153E2111604422C3F81C25324BD3F81C35002BFADA4FF0AA33C5F80C312D4B1E60A3F58473C3F8184503F582731860012037E03F
:4025C000234B19680A6AB1F8AC30C3EBC3031344DA6812F0020F37D00868D1F88010425822F47F42DB681B0C1B029BB213434350174B19680D68D1F884402B5923F47F4393
:40260000086AB1F8AC20C2EBC2020244D268120E43EA02232B5101200D4B1A68136AB2F8AC20C2EBC2021344DA6822F00102DA60074B1B681A6AB3F8AC30C3EBC3031344E2
:4026400000225A60F0BC70470020E5E70020EFE7C0100008B40F000800ED00E0D40F00080801264000002640040126405FF800F01B1600105FF800F0650E00105FF800F005
:402680000D1400105FF800F03D1500105FF800F0131600105FF800F0851000105FF800F0911300105FF800F0D50900100000000000000000000000000000000000000000A4
:4026C00000000000000000000000000000000000000000000000000000000000000000000000000000000000000000000000000000000000000000000000000000000000DA
:402700000000000000000000000000000000000000000000000000000000000000000000000000000000000000000000000000000000000000000000000000000000000099
:402740000000000000000000000000000000000000000000000000000000000000000000000000000000000000000000000000000000000000000000000000000000000059
:402780000000000000000000000000000000000000000000000000000000000000000000000000000000000000000000000000000000000000000000000000000000000019
:4027C00000000000000000000000000000000000000000000000000000000000000000000000000000000000000000000000000000000000000000000000000000000000D9
:0200000490303A
:020000003EF0D0
:0200000490501A
:0C0000000000000000000000000C3EF0BA
:00000001FF