:020000041000EA
:4000000000F003080D0900100D00000081090010810900108109001081090010000000000000000000000000000000007D0900107D090010000000007D0900107D090010D2
:400040007D0900107D0900107D0900107D0900107D0900107D0900107D0900107D0900107D0900107D0900107D0900107D0900107D0900107D0900107D0900107D09001020
:400080007D0900107D0900107D0900107D0900107D0900107D0900107D0900107D0900107D0900107D0900107D0900107D0900107D0900107D0900107D0900107D090010E0
:4000C0007D0900107D0900107D0900107D0900107D0900107D0900107D0900107D0900107D0900107D0900107D0900107D0900107D0900107D0900107D0900107D090010A0
:400100007D0900107D0900107D0900107D0900107D0900107D0900107D0900107D0900107D0900107D0900107D0900107D0900107D0900107D0900107D0900107D0900105F
:400140007D0900107D0900107D0900107D0900107D0900107D0900107D0900107D0900107D0900107D0900107D0900107D0900107D0900107D0900107D0900107D0900101F
:400180007D0900107D0900107D0900107D0900107D0900107D0900107D0900107D0900107D0900107D0900107D0900107D0900107D0900107D0900107D0900107D090010DF
:4001C0007D0900107D0900107D0900107D0900107D0900107D0900107D0900107D0900107D0900107D0900107D0900107D0900107D0900107D0900107D0900107D0900109F
:400200007D0900107D0900107D0900107D0900107D0900107D0900107D0900107D0900107D0900107D0900107D0900107D0900107D0900107D0900107D0900107D0900105E
:400240007D0900107D0900107D0900107D0900107D0900107D0900107D0900107D0900107D0900107D0900107D0900107D0900107D0900107D0900107D0900107D0900101E
:400280007D0900107D0900107D0900107D0900107D0900107D0900107D0900107D0900107D0900107D0900107D0900107D0900107D0900107D0900107D0900107D090010DE
:4002C0007D0900107D0900107D0900107D0900107D0900107D0900107D0900107D09001010B5054C237833B9044B13B10448AFF300800123237010BDB40D000800000000E3
:400300004420001008B5034B1BB103490348AFF3008008BD00000000B80D00084420001070470000014B01221A6070471410000870B50646264B197093F83E30DB0933D1E4
:400340001446234A92F83E3043F0800382F83E30204B00221A601E4B93F83F3013F0010F04D01D4B9B6813F0030FF4D01B4B1C4A0121002000F0D8FE40BB164B1B68002BAD
:40038000FBD0ACB1022C07D0032C09D0104B93F83E30DB09FAD10BE0002001F0FDF9F5E7002001F0C7FAF1E70122094B83F83C2034460C4D0FCD0FC40FCD0FC40FCD0FC45F
:4003C00095E80F0084E80F00304670BD0322ECE7D00D0008141000080000214025030010E0020008D80D000870B590B006460D4600221949012000F0E7FE184B184C5C60D9
:40040000DC60656094F83E3043F0200384F83E3094F83E306FF3C71384F83E30012211466846FFF785FFA36BBC2B02D9A36BBE2B03D90B4B052283F83C203446094D0FCD1C
:400440000FC40FCD0FC40FCD0FC495E80F0084E80F00304610B070BD21030010E0020008D00D0008D80D000810B504460A462021FFF75EFF204610BD10B50446034B996471
:4004800001220321FFF754FF204610BDD00D000858B50446044EB164F2641A463021FFF747FF204658BD00BFD00D000870B590B006460C461E4DA964002250216846FFF7C2
:4004C00037FF95F83C30E3B9237B03F00303032B24D0022B23D0012B25D0154B93F83E30DB09FAD13446134D0FCD0FC40FCD0FC40FCD0FC495E80F0084E80F00304610B00B
:4005000070BD344608350FCD0FC40FCD0FC40FCD0FC495E80F0084E80F00EFE7FEE7002001F008FAD9E7002001F036F9D5E700BFD00D0008D80D0008F0B591B04FF47A7095
:4005400001F034F800F076F862B6344B10229A60334F34496846FFF747FF3D466C460FCC0FC50FCC0FC50FCC0FC594E80F0085E80F002D496846FFF77FFF03216846FFF7AB
:4005800073FF3E466C460FCC0FC60FCC0FC60FCC0FC694E80F0085E80F0097F8223013F0200F09D11D4B10225A601C4B2022DA60642000F0FBFFF8E7184B10225A60174E57
:4005C0001027B760194948230B7045234B704C238B70CB704F220A712020487157208871CA7152220A724B7244238B7203230B226846FFF74DFF0A4C6D460FCD0FC40FCD25
:400600000FC40FCD0FC495E80F0084E80F00776007496846FFF74AFFD1E700BF000632407C10000834030008181000083C1000085403000808B500F03FF800F003F800F0B9
:4006400027F808BD114A136899684FF08040C1F800049868B3F87010435823F47F4343F4A0634350126892F86F1003238B4092F86C1092F86E0081400B43916843F00043A7
:40068000C1F800349368D3F800347047FC10000810B5064C064A0421204600F065FA054A0521204600F060FA10BD00BF00063240E81C00101C1D0010704708B5012000F03C
:4006C00013FE08BD7047000030B4654BD3F8802302F00F0202F1D00153F8213003F00703042B17D8DFE803F00316160508005D4B11E05D4B1B680EE002F1C003584951F8A5
:40070000233003F01F03112B1DD0132B1ED14FF4004300E0554BB2BB514AD2F8900500F00100D2F88815C1F30171D2F8882512F0405F0ED04A4AD2F88825C2F30172012ABC
:4007400008D0002206E04FF40043E4E74FF4FA43E1E7012202B108B9032917D1404AD2F88015C1F31101D2F88405C0F30C00D2F88025C2F300620132B3FBF0F301FB03F358
:40078000B3FBF2F302E0013A012A32D9344AD2F88023C2F30112D340354A1360354AD2F89010C1F3072101311269120E0132B3FBF2F231480260B3FBF1F3304A1360304A70
:4007C000136003F5742202F23F222E49A1FB0212C2F387422C490A7003F2E7332B4AA2FB03239B092A4A1360DB032A4A136030BC70471B4902F5C87051F8204004F00104A0
:4008000002F5C07551F82500C0F3017051F8251011F0405F09D02946114D55F82110C1F30171012902D0002100E0012101B10CB90328ABD10A4C02F5C07254F8221001F067
:400840007F0154F82200C0F3042054F82220C2F3044201FB03F3B3FBF0F3B3FBF2F395E70000264000127A006C03000800366E0170030008000021407403000868030008BC
:400880007C03000883DE1B4384030008D34D6210800300087803000808B50D4800F07EF8FFF710FFFFF710FF00221146032000F08BFD084800F05EFB074B1B6893F84D30B7
:4008C00013B900F049F908BD044800F0CDFBF8E7841D0010280E0008FC100008501D001008B501F0D2F8074AD2F8883043F47003C2F88830BFF34F8FBFF36F8F01F0C9F879
:4009000008BD00BF00ED00E070477047FFF7FCFF72B6144C144DAC4209DA21686268A368043BA2BFC858D050FAE70C34F3E70F490F4A00209142BCBF41F8040BFAE70D4877
:400940000D490860BFF34F8FFFF7CAFFFFF7A4FFFFF7DBFF01F0B6F8FFF7EEFD01F09CF8FEE700004820001060200010B40D0008241100080000000808ED00E0FEE7FEE762
:4009800000B504207146084202D0EFF3098001E0EFF30880043000F033FEFEE7014B1860704700BFFC100008B0F1204F3CD018D880283BD007D9B0F5807F3FD0244B9842B2
:4009C00009D024487047102832D0402801D12248704700282ED170474FF4A40070471D4870471E4B98422BD02DD31D4B98422CD8B0F1704F12D900F1805001380428EED813
:400A000001A353F820F000BFD9090010DF090010390A0010210A0010250A00100D4870471048704710487047002070470F4870470F487047074870470E487047044870470E
:400A40004FF4A0007047034870470248C3E700BF06005200FF00520002005000090000A0050000F0020052000300520005005200010050000100520038B5134B1B6893F891
:400A80002E30012B17D9104B1D682B6AB5F8AC2013442C46D5F8B020D358002B11DB0B4B1868FFF781FF6B6801229A6063689B68002BFBD138BD4FF4E971054800F090FDC9
:400AC000E1E70448F6E700BFFC100008A80F0008381E0010020050001A4B186028B102230370FF23437000234380174B1B6893F84C2002B9704700B583B0B3F93630ADF8C5
:400B00000030002301931149684600F015FDBDF90030002B07DB03F01F015B0901228A400B4941F82320084B1B6893F84D3013B903B05DF804FB02220649012000F044FB29
:400B4000F6E700BFB80F0008FC1000082D08000800E100E0E908000808B50248FFF7BCFF08BD00BF100D0008002800F0A181F8B50D4614460646002A00F09C81072900F265
:400B8000F8802368012B00F2F980636833F00F0340F0F980237A33F01F0340F0F980E368032B00F2FA802369012B00F2FB806369012B00F2FC80A369012B00F2FD80E36904
:400BC000032B00F2FE80236A012B00F2FF80636A012B00F20081A36A012B00F20181E36A032B00F20281236B072B00F203812768072D00F20481012F00F20781002F40F0AB
:400C00000A810123AB4073606768072D00F2078137F00F0340F00981A800A74B1B6893F879108B590F22824023EA020307F00F0787401F438F51277A072D00F2FC8037F03D
:400C40001F0340F0FE809C4B1A689369F31ADB095269190102EB0313032D00F2F88053584FEAC50C1F2000FA0CF023EA000307F01F0707FA0CF71F435750E768082D00F242
:400C8000F380032F00F2F68068008B4B1B6893F878108B590322824023EA020207F00303834013438B512769082D00F2E980012F00F2EC80B3690122AA4023EA020307F0A5
:400CC0000107AF401F43B7616769072D00F2E480012F00F2E7807848036893F87AC05CF806300121A94023EA010307F00102AA401A434CF806206A0002F1100C032303FAC3
:400D00000CF31943036893F87B70BB5923EA0101A36903F00103AB400B43E26902F0030202FA0CF21343BB51036893F87C20B15821F0FF01236A03F00103606A400000F050
:400D400002000343A06A800000F004000343E06AC00000F018000343206B4001C0B20343AD0005F47E7503FA05F50D43B5500020F8BD4F21514800F033FC02E750214F48B8
:400D800000F02EFC01E751214C4800F029FC01E752214A4800F024FC01E75321474800F01FFC00E75421454800F01AFCFFE65521424800F015FCFEE65621404800F010FC6F
:400DC000FDE657213D4800F00BFCFCE658213B4800F006FCFBE65921384800F001FCFAE65A21364800F0FCFBF9E65B21334800F0F7FBF8E65C21314800F0F2FBF7E640F24C
:400E000031312F4800F0ECFBF5E640F232312C4800F0E6FBF2E60123AB40B360F4E640F2CE31274800F0DCFBF2E640F2CF31244800F0D6FBF0E640F29221214800F0D0FBFC
:400E4000FDE640F293211E4800F0CAFBFBE62A1F5968D2001F20904021EA000107F01F0797400F435F6008E740F2F261144800F0B7FB06E740F2F361114800F0B1FB03E7ED
:400E800040F273610E4800F0ABFB10E740F274610B4800F0A5FB0DE740F20D41084800F09FFB15E740F20E41054800F099FB12E70448704703485BE7FC100008841E001074
:400EC000CC1E001001005A0038B50C4B1B68D3F8B0301B58002B0EDA05460C460B0C1B041BB9A4B26C60002038BD4FF43971044800F076FBF5E70348F6E700BFFC10000856
:400F0000381E001001008A0038B50368002B0FDA05460C46C2600B0C1B041BB9A4B2AC60002038BD40F2CA21024800F059FBF5E70148F6E7381E001001008A0038B504463F
:400F40000D4651B1084B1B68D3F8B0301B59002B08DAE3682B60002038BDA321034800F03FFBEFE70248F7E7FC100008141F001001008A00034B1B6803B17047014B186016
:400F8000FBE700BFBC0F00082DE9F84304460F4690461D46DDF820902F4B1B68002B3ED02D4B1A682C2303FB04F01418EEB21650C5F3072363602D0CA560284B1B6893F808
:400FC0002E309E4230D2254B1A68136AB2F8AC1001FB06332361666892F82F309E4229D21E4B1B681D6A803605EB46156561A668330C1B0423BB330C1B043BBBB3B243EA27
:401000000646AE60C4F81C8027620023A361B9F1000F02D0B9F90030A381BDE8F883BF210F4800F0DDFABBE74FF4E9710D4800F0D7FAC8E74FF4F7710A4800F0D1FACFE72D
:4010400040F20D21074800F0CBFAD4E740F20E21044800F0C5FAD1E7BC0F0008FC100008601F0010381E0010F0B58FB0044600283FD0A369072B41D8E36A002B43D0236B8C
:40108000002B45D007AD04F114060FCE0FC537682F6002AD26460FCE0FC533682B601F4B1B689B8E079A1344ADF83030089B0D930CAD00953B46A26AE16A0A98FFF764FFE5
:4010C00000210091069B0A460598FFF75DFF216B284600F031FABDF93030002B07DB03F01F015B0901228A400D4941F823200FB0F0BD5C210B4800F073FABAE760210948E4
:4011000000F06EFAB8E76221064800F069FAB6E76321044800F064FAB4E700BFFC10000800E100E0601F0010F8B507460C461D4616463AB31F4B1B6853B31E4B19682C22F8
:4011400002FB071002FB04114A68012404FA02F2120443689C40036933B38F6937BB1B68002B25DA33881A4332600369DE6001238B614D620569230C1B047BB9A4B2AC6095
:401180003846F8BD40F207110B4800F029FAD1E74FF48471084800F023FACEE740F2CA21064800F01DFAE9E7054FE9E7054FE7E7044FE5E7BC0F0008601F0010381E0010DB
:4011C00004028A0007028A0070B504460E4615460F4B1B6873B10E4B18682C2303FB0404236A6BB1E369AB4210D9236A43F82560002070BD4FF4B471064800F0F1F9EAE7B9
:401200004FF4B671034800F0EBF9EBE70248F0E7BC0F0008601F00100A028A0070B582B000230193044680B12369A3B16369C3B1236AE3B16369DD682A0C1ED1ADB2002DAE
:401240003DD163691B6802B070BD40F2DB11244800F0C6F9E8E74FF4EE71214800F0C0F9E4E740F2DD111E4800F0BAF9E0E74FF4EF711B4800F0B4F9DCE712041A601B6842
:401280002069184B1B68D3F8B0301B58002BD5DA01A9FFF753FE60B9019803681E0CDBB2E2699A4206D9226A52F8233013B1984700E0002631462069FFF706FEBEE76369BF
:4012C0001D601B68636A2BB19847002363620023A361B6E7A36A002BF9D09847F7E700BF601F0010FC10000810B50446084B1B683BB1074B1B682C2000FB0430FFF78EFFF6
:4013000010BD40F2BB11034800F06AF9F1E700BFBC0F0008601F0010264B1B6893F82E30834242D970B504460D4600293FD00B6813F01F0F01D0204870BD1E4B1B6893F813
:401340002E3098421CD21B4B1B68186AB3F8AC3003FB0404194E34602A68D2080021686800F0D4FB00212046FFF7AEFD34686DB12A4600212046FFF7C7FD68B11048DBE772
:401380004FF4E9710F4800F02BF9DCE740F2A2310C4800F025F9EBE70021084B1868FFF793FD0028C8D00648C6E7034870470248C2E700BFFC10000803018A00C00F0008C7
:4013C00001018A00381E001038B505460C4613461AB113B3D4B9124838BD0029F9D1114B1B6893F82E3098420AD20E4B1B681A6AB3F8AC0000FB05200B4B18602046EBE75D
:401400004FF4E971094800F0EBF8EEE708490C604B602846FFF780FFDEE70148DCE700BF03018A00FC100008C00F0008381E0010140D00082DE9F041194B1B68DD682B682D
:4014400083422BD90C46460900F01F00012303FA00F8B9B10027124B18680368002B17DA6A6852F8263013EA080F0FD023EA080342F8263000250021FFF726FD54B1284606
:40148000BDE8F08100F001FB0746E4E7054DF2E7054DF3E7384600F0FCFAF0E7034DEEE7C00F0008020188000301880004018A000B4B1B68DB681A6882420CD9410900F05D
:4014C0001F00012202FA00F05B6853F82130034203D004487047044870470448704700BFC00F00080101880004018A000001880038B504460C4B9A680C4B9A4204D010342B
:401500000B4B53F8240038BD0D4631B11034074B53F8240043F82450F5E740F24111054800F05EF8F2E700BF00ED00E00000000800000010AC1F001060B338B50D46044620
:401540004368072B13D8B4F900306268002B13DB5201D2B203F1604303F5614383F800230D4B9A680D4B9A420DD0002038BD3C210B4800F035F8E6E703F00F035201D2B245
:401580000849CA54ECE72946B4F90000FFF7B0FF0020EBE70448704700ED00E000000008AC1F001014ED00E00100560010B50446B4F5004F06D9074B186800F05DFAA4F5B3
:4015C0000044F5E7044B186800FB04F000F054FA10BD00BF780300088003000801BEFEE738B50C46044D18220146284600F0DEFAAC610020FFF7F2FF200D0008FEE700001C
:4016000008B50268254BDA6142681A6282685A62C2689A620269DA6242691A6382695A63C2699A631E4A916AD963D16A1964516A5964516B9964926BDA64F1EE103A13F058
:40164000900F27D0026A154B1A65426A5A65826A9A65C26ADA65026B1A66426B5A66826B9A66C26BDA66026C1A67426C5A67826C9A67C26CDA67026DC3F88020426DC3F824
:401680008420826DC3F88820C26DC3F88C20026EC3F89020FFF7B2FF08BD00BF200D000800ED00E070B582B006460D46022803D9042801D0032816D16B1EDBB2012B03D96D
:4016C000042D01D0082D14D12E4B53F82640042D29D0012D29D0022D3DD026466469002CFBD100203EE040F6F5112748FFF778FFE2E740F6F6112448FFF772FFE4E764691F
:40170000BCB1224B984212D0A3681D42F7D1E3681A6800925B68019323682946684698471B4B1C60EBE70020EAE70020E8E7012DEAD1012D01D002B070BD144B984204D03C
:40174000144B002243F82620F5E7114B1A68114B43F82620EFE70E4B1E68002EC1D03669BFE73669002EE6D0B3681D42F9D1F3681A6800925B6801933368294668469847F3
:40178000EFE700BFFC0F0008F81F0010FF004200F80F0008E40F000870B50446012827D8254B1B6853B301210020FFF77BFF064600283AD100F069F905461F4B1B681BB1F8
:4017C00004210020FFF76EFF1C4A136923F004031361012C14D030BF284600F05AF9164B1B681BB108210020FFF75CFF304670BD40F2CF111248FFF7F3FED1E70026D9E742
:4018000020BF4FF0B0539B899BB233B14FF0B0539B899BB2B3F5807FDED10A4B1B7803B120BF084B01221A70D6E702210020FFF739FF054EDAE700BFFC0F000800ED00E0CD
:40184000F81F001010100008FF00420010B5044600282BD0184A1368DB6803F5F2431B6823601368DA6802F5F04212686260D96847F604028A58A260D96847F608028A585F
:40188000E260D96847F60C028A582261D96847F610028A586261D96847F614028A58A261DA6847F61803D358E36110BD40F614310248FFF795FECDE7FC100008F81F001034
:4018C00010B5044600282AD0184B1B68DA68616802F5F0421160D968A06847F604028850D968E06847F608028850D968206947F60C028850D968606947F610028850D968C1
:40190000A06947F614028850D968E06947F618028850DB68226803F5F2431A6010BD40F63C310348FFF75CFECEE700BFFC100008F81F001070B5044601285BD8464B5B686D
:40194000002B5DD001210846FFF7ACFE0546002846D100F09AF806463F4B5B681BB104210120FFF79FFE3D4B1B6893F841202AB19B68D3F8E03013F0100F43D14FF0B0538D
:401980009B899BB233B14FF0B0539B899BB2B3F5807F46D1204600F0A3F9304B1B6893F84120D2B1C8B19A68D2F8E02012F0100F13D04FF0B0525278002A3DD04FF0B05236
:4019C0005278D2B2212A39D01A6AB3F8AC30C3EBC3031344D868FFF773FF304600F059F875BB1D4B5B681BB108210120FFF75AFE284670BD40F2B2211948FFF7F1FD9DE7E8
:401A00000025A6E71748FFF721FFB7E730BF134B1B681A68D3F89030D35803F00303022B08D1114A136943F004031361012CEDD120BFECE70020B0E70A48CCE70948CAE7FA
:401A4000054B5B681BB102210120FFF72BFE074B9D42CDD0064DCBE7FC0F0008FC100008F81F0010C40F000800ED00E005004200FF004200000000000230800803D0013015
:401A80000238FCD100BF00BF7047EFF3108072B6704780F31088704738B5084B084D5B1B9C1007D0043B1D44013C55F804399847002CF9D1BDE8384000F00CB9C00700086C
:401AC000BC07000870B50D4E0D4D761BB61006D0002455F8043B01349847A642F9D1094E094D761B00F0F0F8B61006D0002455F8043B01349847A642F9D170BDB407000886
:401B0000B4070008BC070008B4070008F0B4860746D0541E002A3CD0CAB2034601E0013C37D303F8012B9D07F9D1032C2AD9CDB245EA05250F2C45EA054534D9A4F1100271
:401B400022F00F0C03F120071609674403F1100242E9045542E902551032BA42F8D1721C14F00C0F03EB021204F00F0613D0331F23F003030433134442F8045B9342FBD172
:401B800006F003042CB1CAB21C4403F8012B9C42FBD1F0BC704734461346002CF3D1F8E714460346C1E71A462646E0E770B440EA0104A30701D1032A0FD804464D1E07E03C
:401BC00015F8011F03F8011B561EC9B11C4632462346002AF4D170BC70470B460446194653F8046BA6F1013525EA060515F0803FE4D1043A032A44F8046B1946EFD8DDE78A
:401C00002244002EE7D003F8011B9342FBD170BC704700BF024B13B1024800F005B8704700000000991A0010002301461A46184600F004B8704700BF704700BF2DE9F04770
:401C4000DFF880A00646DAF8000098460F469146FFF7F0FF1A4B1B68D3F8484124B365681F2D26DC5EB9AB1C0135DAF80000656044F82370FFF7E0FF0020BDE8F08704EBB8
:401C800085030121C3F88890D4F88821A9400A43022EC4F88821C3F80881E4D1D4F88C311943C4F88C11DEE703F5A674C3F84841D5E7DAF80000FFF7BFFF4FF0FF30DCE7A2
:401CC00040200010B0070008F8B500BFF8BC08BC9E467047F8B500BFF8BC08BC9E4670475FF800F0C10A000800000000060000000000000000000000000000000000000097
:401D00000100000001000000000000000000000000000000000000000000000000000000060000000000000000000000000000000000000001000000010000000000000099
:401D4000000000000000000000000000000000000300000001000000010000000000000005036000040000000100000000000000010000000604600008000000880F0008DF
:401D8000BB0600100000214000002540000001400000344000002440000031400000324000001F41000023400000114010101010101010101010800019005500F0000501F8
:401DC000053B04101C0101000FC000000004000001010101011D3A57789600082000101208000000001F00000010000F002000023F06080E00080009000A000B24282C3002
:401E000034000000100000009000000088000000080000008000000004F0000000F00000400200002005A000D00100018001A0012000000010000000433A2F5653436F6444
:401E4000655F4F6E657468696E785061636B5F57696E646F77732F50444C5F312E332E312E313439392F647269766572732F696E636C7564652F63795F6970635F64727692
:401E80002E680000433A2F5653436F64655F4F6E657468696E785061636B5F57696E646F77732F50444C5F312E332E312E313439392F647269766572732F736F75726365F5
:401EC0002F63795F6770696F2E630000433A2F5653436F64655F4F6E657468696E785061636B5F57696E646F77732F50444C5F312E332E312E313439392F647269766572D4
:401F0000732F696E636C7564652F63795F6770696F2E6800433A2F5653436F64655F4F6E657468696E785061636B5F57696E646F77732F50444C5F312E332E312E313439FC
:401F4000392F647269766572732F736F757263652F63795F6970635F6472762E63000000433A2F5653436F64655F4F6E657468696E785061636B5F57696E646F77732F5094
:401F8000444C5F312E332E312E313439392F647269766572732F736F757263652F63795F6970635F706970652E630000433A2F5653436F64655F4F6E657468696E785061DD
:401FC000636B5F57696E646F77732F50444C5F312E332E312E313439392F647269766572732F736F757263652F63795F737973696E742E6300000000433A2F5653436F6467
:40200000655F4F6E657468696E785061636B5F57696E646F77732F50444C5F312E332E312E313439392F647269766572732F736F757263652F63795F737973706D2E63003D
:4020400088030008000000000000001000000008E002000068200010E0020008300A0000B40D00087003000001006000D00D000800006000D00D00080280000000000000CE
:4020800000000000000000000000000000000000000000000000000000000000000000000000000000000000000000000000000000000000000000000000000000F0F0013F
:4020C000F0020008F10064000A000000000000000000000000000000000000000700000001000000000000143A0000000000000000127A0000127A0000127A0000093D0047
:402100000000A00F00127A00401F0000080000000000000074060008DC0600084407000800000000000000000000000000000000000000000000000000000000000000003E
:40214000000000000000000000000000000000000000000000000000000000000000000000000000000000000000000000000000000000000000000000000000000000005F
:40218000000000000000000000000000000000000000000000000000000000000000000000000000000000000000000000000000000000000000000001000000000000001E
:4021C0000E33CDAB34126DE6ECDE05000B000000000000000000000000000000000000000000000000000000000000000000000000000000000000000000000000000000B3
:40220000000000000000000000000000000000000000000000000000000000000000000000000000000000000000000000000000000000000000000000000000000000009E
:40224000000000000000000000000000000000000000000000000000000000000000000000000000000000000000000000000000000000000000000000000000000000005E
:40228000000000000000000000000000000000000000000000000000000000000000000000000000000000000000000000000000000000000000000000000000000000001E
:4022C00000000000000000000000000000000000000000000000000000000000000000000000000000000000000000000000000000000000000000000000000000000000DE
:40230000000000000000000000000000000000000000000000000000000000000000000000000000000000000000000000000000000000000000000000000000000000009D
:40234000000000000000000000000000000000000000000000000000000000000000000000000000000000000000000000000000000000000000000000000000000000005D
:40238000000000000000000000000000000000000000000000000000000000000000000000000000000000000000000000000000000000000000000000000000000000001D
:4023C00000000000000000000000000000000000000000000000000000000000000000000000000000000000000000000000000000000000000000000000000000000000DD
:40240000000000000000000000000000000000000000000000000000000000000000000000000000000000000000000000000000000000000000000000000000000000009C
:40244000000000000000000000000000000000000000000000000000000000000000000000000000000000000000000000000000000000000000000000000000000000005C
:40248000000000000000000000000000000000000000000000000000000000000000000000000000000000000000000000000000000000000000000000000000000000001C
:4024C00000000000000000000000000000000000000000000000000000000000000000000000000000000000000000000000000000000000000000000000000000000000DC
:40250000000000000000000000000000000000000000000000000000000000000000000000000000000000000000000000000000000000000000000000110008151C001041
:4025400005030010E102001080B2C10050B3164B1B681A6AB3F8AC30C3EBC303D358002BF5DA124B3E221A60043341F61E721A60A3F584730622C3F8182521F07F41C3F8E8
:402580001C15D3F81C35084B1B681A6AB3F8AC30C3EBC303134400225A60054BD3F81C35002BFADA704700BFFC1000080401264000002640F8B5284B1B6893F82E30052BC4
:4025C00036D9254F3A68166AB2F8AC3003EB83031E4452684FF26003D458A4B200F040FA05463B681968D3F88C208A58013C032C1AD8032A22D01868D3F880104258120EF6
:402600004058C0F30720531C00FB0333134800FB03F3134A1068134AA2FB00208009B3FBF0F08230FFF790FF284600F025FAF8BD4FF4E9710C4800F02BFAC2E70B4A12783F
:40264000002AD8D10822B2601968D3F88C208A58032AF9D0CFE700BFFC10000840420F0070030008D34D6210381E00100B0000164378FF2B00D0704710B500F0F1F9044678
:40268000104B1B6893F82E30032B15D90D4B1B681A6AB3F8AC3003EB43031344DB685A68136843F001031360136813F0010FFBD1204600F0E1F910BD4FF4E971024800F06E
:4026C000E7F9E3E7FC100008381E00102DE9F84307468846524B1B6893F82E30012B3DD94F4B1B681C6AB3F8AC201444D3F8B050254493F84C30002B73D04A4B1B78002B91
:4027000040D1474B1B6893F82E30052B2CD9444B19680A6AB1F8AC3003EB83031344D1F8B020D358002B74DB002000F0A9F93E4B984270D000233D4A12680121184600F05A
:402740008BF90646B0B9002000F09AF9364B984212D0374B9E420FD80136F4E74FF4E971344800F095F9BBE74FF4E971314800F08FF9CCE7304C1CE02D4B9E424DD84FF037
:40278000010901E04FF0000900F06AF906462B4BD3F81C35002B0FDB274CB9F1000F05D00121002000F060F90028F9D1304600F063F92046BDE8F883214A0121204600F0F7
:4027C00057F908B11C4CE8E74046FFF7BDFE37B12B68002BFCDB00F057F90446DDE7194CDBE700F03DF90646154A0121204600F03FF938B95FB12B68002BFCDB00F044F92C
:40280000044600E00C4C304600F036F9D1E70D4CF9E7094CCDE7084CCBE7074CC9E700BFFC1000080B00001601018800B80F0008EF490200381E00100500520000002640D4
:40284000A80F000801005000F0B47C4B1A68116AB2F8AC30C3EBC303194455680B68002BFCDA4FF0B0535B78B3B14FF0B0535B78DBB2212B10D0724BCB60704B1B681C6A65
:40288000B3F8AC20C2EBC2022244002454601C68D3F890301C4442E0CB6843F00103CB60136AB2F8AC40C4EBC4042344DC6814F0020FE2D0DE68B6B21768D2F880403C5984
:4028C000240A240404F47F0CD2F884403F593F0A4CEA07643443DC601468D2F88020A35823F47F4343F41063A350544A13681E68D3F88440335923F47F4343F41063335124
:4029000013681A68D3F880401459D3F88430D358B3E730BF236803F00303022B0FD1494A136943F0040313610128F2D120BF464B1B7803B120BF444B01221A70EAE70B681F
:40294000002BFCDA4FF0B0535B787BB34FF0B0535B78DBB2212B29D0D5F80C31002B6BD13A490E683A4BD3F818453A4A106841F61E770F600621C3F818153E211160442299
:40298000C3F81C25324BD3F81C35002BFADA4FF0AA33C5F80C312D4B1E60A3F58473C3F8184503F582731860012037E0234B19680A6AB1F8AC30C3EBC3031344DA6812F03C
:4029C000020F37D00868D1F88010425822F47F42DB681B0C1B029BB213434350174B19680D68D1F884402B5923F47F43086AB1F8AC20C2EBC2020244D268120E43EA02233C
:402A00002B5101200D4B1A68136AB2F8AC20C2EBC2021344DA6822F00102DA60074B1B681A6AB3F8AC30C3EBC303134400225A60F0BC70470020E5E70020EFE7FC100008F3
:402A4000C40F000800ED00E0101000080801264000002640040126405FF800F0291100105FF800F08B1A00105FF800F0351400105FF800F0090F00105FF800F0931A0010A6
:402A80005FF800F0B11400105FF800F0790A00105FF800F0E115001000000000000000000000000000000000000000000000000000000000000000000000000000000000D3
:402AC00000000000000000000000000000000000000000000000000000000000000000000000000000000000000000000000000000000000000000000000000000000000D6
:402B00000000000000000000000000000000000000000000000000000000000000000000000000000000000000000000000000000000000000000000000000000000000095
:402B40000000000000000000000000000000000000000000000000000000000000000000000000000000000000000000000000000000000000000000000000000000000055
:402B80000000000000000000000000000000000000000000000000000000000000000000000000000000000000000000000000000000000000000000000000000000000015
:402BC00000000000000000000000000000000000000000000000000000000000000000000000000000000000000000000000000000000000000000000000000000000000D5
:0200000490303A
:02000000A94411
:0200000490501A
:0C0000000000000000000000000DA944FA
:00000001FF